{
  "abi": [
    {
      "inputs": [],
      "stateMutability": "nonpayable",
      "type": "constructor"
    },
    {
      "anonymous": false,
      "inputs": [
        {
          "indexed": true,
          "internalType": "address",
          "name": "owner",
          "type": "address"
        },
        {
          "indexed": true,
          "internalType": "address",
          "name": "spender",
          "type": "address"
        },
        {
          "indexed": false,
          "internalType": "uint256",
          "name": "value",
          "type": "uint256"
        }
      ],
      "name": "Approval",
      "type": "event"
    },
    {
      "anonymous": false,
      "inputs": [
        {
          "indexed": true,
          "internalType": "address",
          "name": "previousOwner",
          "type": "address"
        },
        {
          "indexed": true,
          "internalType": "address",
          "name": "newOwner",
          "type": "address"
        }
      ],
      "name": "OwnershipTransferred",
      "type": "event"
    },
    {
      "anonymous": false,
      "inputs": [
        {
          "indexed": false,
          "internalType": "address",
          "name": "account",
          "type": "address"
        }
      ],
      "name": "Paused",
      "type": "event"
    },
    {
      "anonymous": false,
      "inputs": [
        {
          "indexed": true,
          "internalType": "address",
          "name": "from",
          "type": "address"
        },
        {
          "indexed": true,
          "internalType": "address",
          "name": "to",
          "type": "address"
        },
        {
          "indexed": false,
          "internalType": "uint256",
          "name": "value",
          "type": "uint256"
        }
      ],
      "name": "Transfer",
      "type": "event"
    },
    {
      "anonymous": false,
      "inputs": [
        {
          "indexed": false,
          "internalType": "address",
          "name": "account",
          "type": "address"
        }
      ],
      "name": "Unpaused",
      "type": "event"
    },
    {
      "inputs": [
        {
          "internalType": "address",
          "name": "owner",
          "type": "address"
        },
        {
          "internalType": "address",
          "name": "spender",
          "type": "address"
        }
      ],
      "name": "allowance",
      "outputs": [
        {
          "internalType": "uint256",
          "name": "",
          "type": "uint256"
        }
      ],
      "stateMutability": "view",
      "type": "function"
    },
    {
      "inputs": [
        {
          "internalType": "address",
          "name": "spender",
          "type": "address"
        },
        {
          "internalType": "uint256",
          "name": "amount",
          "type": "uint256"
        }
      ],
      "name": "approve",
      "outputs": [
        {
          "internalType": "bool",
          "name": "",
          "type": "bool"
        }
      ],
      "stateMutability": "nonpayable",
      "type": "function"
    },
    {
      "inputs": [
        {
          "internalType": "address",
          "name": "account",
          "type": "address"
        }
      ],
      "name": "balanceOf",
      "outputs": [
        {
          "internalType": "uint256",
          "name": "",
          "type": "uint256"
        }
      ],
      "stateMutability": "view",
      "type": "function"
    },
    {
      "inputs": [
        {
          "internalType": "uint256",
          "name": "amount",
          "type": "uint256"
        }
      ],
      "name": "burn",
      "outputs": [],
      "stateMutability": "nonpayable",
      "type": "function"
    },
    {
      "inputs": [
        {
          "internalType": "address",
          "name": "account",
          "type": "address"
        },
        {
          "internalType": "uint256",
          "name": "amount",
          "type": "uint256"
        }
      ],
      "name": "burnFrom",
      "outputs": [],
      "stateMutability": "nonpayable",
      "type": "function"
    },
    {
      "inputs": [],
      "name": "decimals",
      "outputs": [
        {
          "internalType": "uint8",
          "name": "",
          "type": "uint8"
        }
      ],
      "stateMutability": "view",
      "type": "function"
    },
    {
      "inputs": [
        {
          "internalType": "address",
          "name": "spender",
          "type": "address"
        },
        {
          "internalType": "uint256",
          "name": "subtractedValue",
          "type": "uint256"
        }
      ],
      "name": "decreaseAllowance",
      "outputs": [
        {
          "internalType": "bool",
          "name": "",
          "type": "bool"
        }
      ],
      "stateMutability": "nonpayable",
      "type": "function"
    },
    {
      "inputs": [
        {
          "internalType": "address",
          "name": "spender",
          "type": "address"
        },
        {
          "internalType": "uint256",
          "name": "addedValue",
          "type": "uint256"
        }
      ],
      "name": "increaseAllowance",
      "outputs": [
        {
          "internalType": "bool",
          "name": "",
          "type": "bool"
        }
      ],
      "stateMutability": "nonpayable",
      "type": "function"
    },
    {
      "inputs": [
        {
          "internalType": "address",
          "name": "to",
          "type": "address"
        },
        {
          "internalType": "uint256",
          "name": "amount",
          "type": "uint256"
        }
      ],
      "name": "mint",
      "outputs": [],
      "stateMutability": "nonpayable",
      "type": "function"
    },
    {
      "inputs": [],
      "name": "name",
      "outputs": [
        {
          "internalType": "string",
          "name": "",
          "type": "string"
        }
      ],
      "stateMutability": "view",
      "type": "function"
    },
    {
      "inputs": [],
      "name": "owner",
      "outputs": [
        {
          "internalType": "address",
          "name": "",
          "type": "address"
        }
      ],
      "stateMutability": "view",
      "type": "function"
    },
    {
      "inputs": [],
      "name": "pause",
      "outputs": [],
      "stateMutability": "nonpayable",
      "type": "function"
    },
    {
      "inputs": [],
      "name": "paused",
      "outputs": [
        {
          "internalType": "bool",
          "name": "",
          "type": "bool"
        }
      ],
      "stateMutability": "view",
      "type": "function"
    },
    {
      "inputs": [],
      "name": "renounceOwnership",
      "outputs": [],
      "stateMutability": "nonpayable",
      "type": "function"
    },
    {
      "inputs": [],
      "name": "symbol",
      "outputs": [
        {
          "internalType": "string",
          "name": "",
          "type": "string"
        }
      ],
      "stateMutability": "view",
      "type": "function"
    },
    {
      "inputs": [],
      "name": "totalSupply",
      "outputs": [
        {
          "internalType": "uint256",
          "name": "",
          "type": "uint256"
        }
      ],
      "stateMutability": "view",
      "type": "function"
    },
    {
      "inputs": [
        {
          "internalType": "address",
          "name": "to",
          "type": "address"
        },
        {
          "internalType": "uint256",
          "name": "amount",
          "type": "uint256"
        }
      ],
      "name": "transfer",
      "outputs": [
        {
          "internalType": "bool",
          "name": "",
          "type": "bool"
        }
      ],
      "stateMutability": "nonpayable",
      "type": "function"
    },
    {
      "inputs": [
        {
          "internalType": "address",
          "name": "from",
          "type": "address"
        },
        {
          "internalType": "address",
          "name": "to",
          "type": "address"
        },
        {
          "internalType": "uint256",
          "name": "amount",
          "type": "uint256"
        }
      ],
      "name": "transferFrom",
      "outputs": [
        {
          "internalType": "bool",
          "name": "",
          "type": "bool"
        }
      ],
      "stateMutability": "nonpayable",
      "type": "function"
    },
    {
      "inputs": [
        {
          "internalType": "address",
          "name": "newOwner",
          "type": "address"
        }
      ],
      "name": "transferOwnership",
      "outputs": [],
      "stateMutability": "nonpayable",
      "type": "function"
    },
    {
      "inputs": [],
      "name": "unpause",
      "outputs": [],
      "stateMutability": "nonpayable",
      "type": "function"
    }
  ],
  "devdoc": {
    "kind": "dev",
    "methods": {
      "allowance(address,address)": {
        "details": "See {IERC20-allowance}."
      },
      "approve(address,uint256)": {
        "details": "See {IERC20-approve}. NOTE: If `amount` is the maximum `uint256`, the allowance is not updated on `transferFrom`. This is semantically equivalent to an infinite approval. Requirements: - `spender` cannot be the zero address."
      },
      "balanceOf(address)": {
        "details": "See {IERC20-balanceOf}."
      },
      "burn(uint256)": {
        "details": "Destroys `amount` tokens from the caller. See {ERC20-_burn}."
      },
      "burnFrom(address,uint256)": {
        "details": "Destroys `amount` tokens from `account`, deducting from the caller's allowance. See {ERC20-_burn} and {ERC20-allowance}. Requirements: - the caller must have allowance for ``accounts``'s tokens of at least `amount`."
      },
      "decimals()": {
        "details": "Returns the number of decimals used to get its user representation. For example, if `decimals` equals `2`, a balance of `505` tokens should be displayed to a user as `5.05` (`505 / 10 ** 2`). Tokens usually opt for a value of 18, imitating the relationship between Ether and Wei. This is the value {ERC20} uses, unless this function is overridden; NOTE: This information is only used for _display_ purposes: it in no way affects any of the arithmetic of the contract, including {IERC20-balanceOf} and {IERC20-transfer}."
      },
      "decreaseAllowance(address,uint256)": {
        "details": "Atomically decreases the allowance granted to `spender` by the caller. This is an alternative to {approve} that can be used as a mitigation for problems described in {IERC20-approve}. Emits an {Approval} event indicating the updated allowance. Requirements: - `spender` cannot be the zero address. - `spender` must have allowance for the caller of at least `subtractedValue`."
      },
      "increaseAllowance(address,uint256)": {
        "details": "Atomically increases the allowance granted to `spender` by the caller. This is an alternative to {approve} that can be used as a mitigation for problems described in {IERC20-approve}. Emits an {Approval} event indicating the updated allowance. Requirements: - `spender` cannot be the zero address."
      },
      "name()": {
        "details": "Returns the name of the token."
      },
      "owner()": {
        "details": "Returns the address of the current owner."
      },
      "paused()": {
        "details": "Returns true if the contract is paused, and false otherwise."
      },
      "renounceOwnership()": {
        "details": "Leaves the contract without owner. It will not be possible to call `onlyOwner` functions anymore. Can only be called by the current owner. NOTE: Renouncing ownership will leave the contract without an owner, thereby removing any functionality that is only available to the owner."
      },
      "symbol()": {
        "details": "Returns the symbol of the token, usually a shorter version of the name."
      },
      "totalSupply()": {
        "details": "See {IERC20-totalSupply}."
      },
      "transfer(address,uint256)": {
        "details": "See {IERC20-transfer}. Requirements: - `to` cannot be the zero address. - the caller must have a balance of at least `amount`."
      },
      "transferFrom(address,address,uint256)": {
        "details": "See {IERC20-transferFrom}. Emits an {Approval} event indicating the updated allowance. This is not required by the EIP. See the note at the beginning of {ERC20}. NOTE: Does not update the allowance if the current allowance is the maximum `uint256`. Requirements: - `from` and `to` cannot be the zero address. - `from` must have a balance of at least `amount`. - the caller must have allowance for ``from``'s tokens of at least `amount`."
      },
      "transferOwnership(address)": {
        "details": "Transfers ownership of the contract to a new account (`newOwner`). Can only be called by the current owner."
      }
    },
    "version": 1
  },
  "evm": {
    "assembly": "    /* \"AWEtoken.sol\":306:937  contract AWEtoken is ERC20, ERC20Burnable, Pausable, Ownable {... */\n  mstore(0x40, 0x80)\n    /* \"AWEtoken.sol\":374:482  constructor() ERC20(\"AWE Token\", \"AWE\") {... */\n  callvalue\n  dup1\n  iszero\n  tag_1\n  jumpi\n  0x00\n  dup1\n  revert\ntag_1:\n  pop\n    /* \"@openzeppelin/contracts/token/ERC20/ERC20.sol\":1978:2091   */\n  mload(0x40)\n  dup1\n  0x40\n  add\n  0x40\n  mstore\n  dup1\n  0x09\n  dup2\n  mstore\n  0x20\n  add\n  shl(0xb9, 0x20aba2902a37b5b2b7)\n  dup2\n  mstore\n  pop\n  mload(0x40)\n  dup1\n  0x40\n  add\n  0x40\n  mstore\n  dup1\n  0x03\n  dup2\n  mstore\n  0x20\n  add\n  shl(0xe8, 0x415745)\n  dup2\n  mstore\n  pop\n    /* \"@openzeppelin/contracts/token/ERC20/ERC20.sol\":2052:2057   */\n  dup2\n    /* \"@openzeppelin/contracts/token/ERC20/ERC20.sol\":2044:2049   */\n  0x03\n    /* \"@openzeppelin/contracts/token/ERC20/ERC20.sol\":2044:2057   */\n  swap1\n  dup1\n  mload\n  swap1\n  0x20\n  add\n  swap1\n  tag_7\n  swap3\n  swap2\n  swap1\n  tag_8\n  jump\t// in\ntag_7:\n  pop\n    /* \"@openzeppelin/contracts/token/ERC20/ERC20.sol\":2067:2084   */\n  dup1\n  mload\n  tag_9\n  swap1\n    /* \"@openzeppelin/contracts/token/ERC20/ERC20.sol\":2067:2074   */\n  0x04\n  swap1\n    /* \"@openzeppelin/contracts/token/ERC20/ERC20.sol\":2067:2084   */\n  0x20\n  dup5\n  add\n  swap1\n  tag_8\n  jump\t// in\ntag_9:\n  pop\n  pop\n    /* \"@openzeppelin/contracts/security/Pausable.sol\":996:1003   */\n  0x05\n    /* \"@openzeppelin/contracts/security/Pausable.sol\":996:1011   */\n  dup1\n  sload\n  not(0xff)\n  and\n  swap1\n  sstore\n  pop\n    /* \"@openzeppelin/contracts/access/Ownable.sol\":936:968   */\n  tag_12\n    /* \"@openzeppelin/contracts/utils/Context.sol\":719:729   */\n  caller\n    /* \"@openzeppelin/contracts/access/Ownable.sol\":936:954   */\n  tag_15\n    /* \"@openzeppelin/contracts/access/Ownable.sol\":936:968   */\n  jump\t// in\ntag_12:\n    /* \"AWEtoken.sol\":425:474  _mint(msg.sender, 10000000000 * 18 ** decimals()) */\n  tag_17\n    /* \"AWEtoken.sol\":431:441  msg.sender */\n  caller\n    /* \"AWEtoken.sol\":457:473  18 ** decimals() */\n  tag_20\n    /* \"@openzeppelin/contracts/token/ERC20/ERC20.sol\":3175:3177   */\n  0x12\n  dup1\n    /* \"AWEtoken.sol\":457:473  18 ** decimals() */\n  tag_21\n  jump\t// in\ntag_20:\n    /* \"AWEtoken.sol\":443:473  10000000000 * 18 ** decimals() */\n  tag_22\n  swap1\n    /* \"AWEtoken.sol\":443:454  10000000000 */\n  0x02540be400\n    /* \"AWEtoken.sol\":443:473  10000000000 * 18 ** decimals() */\n  tag_23\n  jump\t// in\ntag_22:\n    /* \"AWEtoken.sol\":425:430  _mint */\n  tag_24\n    /* \"AWEtoken.sol\":425:474  _mint(msg.sender, 10000000000 * 18 ** decimals()) */\n  jump\t// in\ntag_17:\n    /* \"AWEtoken.sol\":306:937  contract AWEtoken is ERC20, ERC20Burnable, Pausable, Ownable {... */\n  jump(tag_71)\n    /* \"@openzeppelin/contracts/access/Ownable.sol\":2433:2620   */\ntag_15:\n    /* \"@openzeppelin/contracts/access/Ownable.sol\":2525:2531   */\n  0x05\n  dup1\n  sload\n  sub(shl(0xa0, 0x01), 0x01)\n    /* \"@openzeppelin/contracts/access/Ownable.sol\":2541:2558   */\n  dup4\n  dup2\n  and\n    /* \"@openzeppelin/contracts/access/Ownable.sol\":2525:2531   */\n  0x0100\n    /* \"@openzeppelin/contracts/access/Ownable.sol\":2541:2558   */\n  dup2\n  dup2\n  mul\n  not(sub(shl(0xa8, 0x01), 0x0100))\n  dup6\n  and\n  or\n  swap1\n  swap5\n  sstore\n    /* \"@openzeppelin/contracts/access/Ownable.sol\":2573:2613   */\n  mload(0x40)\n    /* \"@openzeppelin/contracts/access/Ownable.sol\":2525:2531   */\n  swap4\n  swap1\n  swap3\n  div\n  and\n  swap2\n  dup3\n  swap1\n    /* \"@openzeppelin/contracts/access/Ownable.sol\":2573:2613   */\n  0x8be0079c531659141344cd1fd0a4f28419497f9722a3daafe3b4186f6b6457e0\n  swap1\n    /* \"@openzeppelin/contracts/access/Ownable.sol\":2506:2522   */\n  0x00\n  swap1\n    /* \"@openzeppelin/contracts/access/Ownable.sol\":2573:2613   */\n  log3\n    /* \"@openzeppelin/contracts/access/Ownable.sol\":2496:2620   */\n  pop\n    /* \"@openzeppelin/contracts/access/Ownable.sol\":2433:2620   */\n  pop\n  jump\t// out\n    /* \"@openzeppelin/contracts/token/ERC20/ERC20.sol\":8402:8791   */\ntag_24:\n  sub(shl(0xa0, 0x01), 0x01)\n    /* \"@openzeppelin/contracts/token/ERC20/ERC20.sol\":8485:8506   */\n  dup3\n  and\n    /* \"@openzeppelin/contracts/token/ERC20/ERC20.sol\":8477:8542   */\n  tag_30\n  jumpi\n  mload(0x40)\n  shl(0xe5, 0x461bcd)\n  dup2\n  mstore\n    /* \"#utility.yul\":1904:1906   */\n  0x20\n    /* \"@openzeppelin/contracts/token/ERC20/ERC20.sol\":8477:8542   */\n  0x04\n  dup3\n  add\n    /* \"#utility.yul\":1886:1907   */\n  mstore\n    /* \"#utility.yul\":1943:1945   */\n  0x1f\n    /* \"#utility.yul\":1923:1941   */\n  0x24\n  dup3\n  add\n    /* \"#utility.yul\":1916:1946   */\n  mstore\n    /* \"#utility.yul\":1982:2015   */\n  0x45524332303a206d696e7420746f20746865207a65726f206164647265737300\n    /* \"#utility.yul\":1962:1980   */\n  0x44\n  dup3\n  add\n    /* \"#utility.yul\":1955:2016   */\n  mstore\n    /* \"#utility.yul\":2033:2051   */\n  0x64\n  add\n    /* \"@openzeppelin/contracts/token/ERC20/ERC20.sol\":8477:8542   */\ntag_31:\n  mload(0x40)\n  dup1\n  swap2\n  sub\n  swap1\n  revert\ntag_30:\n    /* \"@openzeppelin/contracts/token/ERC20/ERC20.sol\":8553:8602   */\n  tag_33\n    /* \"@openzeppelin/contracts/token/ERC20/ERC20.sol\":8582:8583   */\n  0x00\n    /* \"@openzeppelin/contracts/token/ERC20/ERC20.sol\":8586:8593   */\n  dup4\n    /* \"@openzeppelin/contracts/token/ERC20/ERC20.sol\":8595:8601   */\n  dup4\n    /* \"@openzeppelin/contracts/token/ERC20/ERC20.sol\":8553:8573   */\n  tag_34\n    /* \"@openzeppelin/contracts/token/ERC20/ERC20.sol\":8553:8602   */\n  jump\t// in\ntag_33:\n    /* \"@openzeppelin/contracts/token/ERC20/ERC20.sol\":8629:8635   */\n  dup1\n    /* \"@openzeppelin/contracts/token/ERC20/ERC20.sol\":8613:8625   */\n  0x02\n  0x00\n    /* \"@openzeppelin/contracts/token/ERC20/ERC20.sol\":8613:8635   */\n  dup3\n  dup3\n  sload\n  tag_35\n  swap2\n  swap1\n  tag_36\n  jump\t// in\ntag_35:\n  swap1\n  swap2\n  sstore\n  pop\n  pop\n  sub(shl(0xa0, 0x01), 0x01)\n    /* \"@openzeppelin/contracts/token/ERC20/ERC20.sol\":8645:8663   */\n  dup3\n  and\n    /* \"@openzeppelin/contracts/token/ERC20/ERC20.sol\":8645:8654   */\n  0x00\n    /* \"@openzeppelin/contracts/token/ERC20/ERC20.sol\":8645:8663   */\n  swap1\n  dup2\n  mstore\n  0x20\n  dup2\n  swap1\n  mstore\n  0x40\n  dup2\n  keccak256\n    /* \"@openzeppelin/contracts/token/ERC20/ERC20.sol\":8645:8673   */\n  dup1\n  sload\n    /* \"@openzeppelin/contracts/token/ERC20/ERC20.sol\":8667:8673   */\n  dup4\n  swap3\n    /* \"@openzeppelin/contracts/token/ERC20/ERC20.sol\":8645:8654   */\n  swap1\n    /* \"@openzeppelin/contracts/token/ERC20/ERC20.sol\":8645:8673   */\n  tag_37\n  swap1\n    /* \"@openzeppelin/contracts/token/ERC20/ERC20.sol\":8667:8673   */\n  dup5\n  swap1\n    /* \"@openzeppelin/contracts/token/ERC20/ERC20.sol\":8645:8673   */\n  tag_36\n  jump\t// in\ntag_37:\n  swap1\n  swap2\n  sstore\n  pop\n  pop\n    /* \"@openzeppelin/contracts/token/ERC20/ERC20.sol\":8688:8725   */\n  mload(0x40)\n    /* \"#utility.yul\":2341:2366   */\n  dup2\n  dup2\n  mstore\n  sub(shl(0xa0, 0x01), 0x01)\n    /* \"@openzeppelin/contracts/token/ERC20/ERC20.sol\":8688:8725   */\n  dup4\n  and\n  swap1\n    /* \"@openzeppelin/contracts/token/ERC20/ERC20.sol\":8705:8706   */\n  0x00\n  swap1\n    /* \"@openzeppelin/contracts/token/ERC20/ERC20.sol\":8688:8725   */\n  0xddf252ad1be2c89b69c2b068fc378daa952ba7f163c4a11628f55a4df523b3ef\n  swap1\n    /* \"#utility.yul\":2329:2331   */\n  0x20\n    /* \"#utility.yul\":2314:2332   */\n  add\n    /* \"@openzeppelin/contracts/token/ERC20/ERC20.sol\":8688:8725   */\n  mload(0x40)\n  dup1\n  swap2\n  sub\n  swap1\n  log3\n    /* \"@openzeppelin/contracts/token/ERC20/ERC20.sol\":8402:8791   */\n  pop\n  pop\n  jump\t// out\n    /* \"AWEtoken.sol\":735:934  function _beforeTokenTransfer(address from, address to, uint256 amount)... */\ntag_34:\n    /* \"@openzeppelin/contracts/security/Pausable.sol\":1239:1258   */\n  tag_43\n    /* \"@openzeppelin/contracts/security/Pausable.sol\":1239:1256   */\n  tag_44\n    /* \"@openzeppelin/contracts/security/Pausable.sol\":1239:1258   */\n  jump\t// in\ntag_43:\n    /* \"AWEtoken.sol\":882:926  super._beforeTokenTransfer(from, to, amount) */\n  tag_46\n    /* \"AWEtoken.sol\":909:913  from */\n  dup4\n    /* \"AWEtoken.sol\":915:917  to */\n  dup4\n    /* \"AWEtoken.sol\":919:925  amount */\n  dup4\n    /* \"AWEtoken.sol\":882:908  super._beforeTokenTransfer */\n  or(tag_0_104, shl(0x20, tag_46))\n    /* \"AWEtoken.sol\":882:926  super._beforeTokenTransfer(from, to, amount) */\n  0x20\n  shr\n  jump\t// in\ntag_46:\n    /* \"AWEtoken.sol\":735:934  function _beforeTokenTransfer(address from, address to, uint256 amount)... */\n  pop\n  pop\n  pop\n  jump\t// out\n    /* \"@openzeppelin/contracts/security/Pausable.sol\":1767:1873   */\ntag_44:\n    /* \"@openzeppelin/contracts/security/Pausable.sol\":1685:1692   */\n  and(0xff, sload(0x05))\n    /* \"@openzeppelin/contracts/security/Pausable.sol\":1836:1845   */\n  iszero\n    /* \"@openzeppelin/contracts/security/Pausable.sol\":1828:1866   */\n  tag_52\n  jumpi\n  mload(0x40)\n  shl(0xe5, 0x461bcd)\n  dup2\n  mstore\n    /* \"#utility.yul\":2579:2581   */\n  0x20\n    /* \"@openzeppelin/contracts/security/Pausable.sol\":1828:1866   */\n  0x04\n  dup3\n  add\n    /* \"#utility.yul\":2561:2582   */\n  mstore\n    /* \"#utility.yul\":2618:2620   */\n  0x10\n    /* \"#utility.yul\":2598:2616   */\n  0x24\n  dup3\n  add\n    /* \"#utility.yul\":2591:2621   */\n  mstore\n  shl(0x82, 0x14185d5cd8589b194e881c185d5cd959)\n    /* \"#utility.yul\":2637:2655   */\n  0x44\n  dup3\n  add\n    /* \"#utility.yul\":2630:2676   */\n  mstore\n    /* \"#utility.yul\":2693:2711   */\n  0x64\n  add\n    /* \"@openzeppelin/contracts/security/Pausable.sol\":1828:1866   */\n  tag_31\n    /* \"#utility.yul\":2377:2717   */\n  jump\n    /* \"@openzeppelin/contracts/security/Pausable.sol\":1828:1866   */\ntag_52:\n    /* \"@openzeppelin/contracts/security/Pausable.sol\":1767:1873   */\n  jump\t// out\n    /* \"AWEtoken.sol\":306:937  contract AWEtoken is ERC20, ERC20Burnable, Pausable, Ownable {... */\ntag_8:\n  dup3\n  dup1\n  sload\n  tag_57\n  swap1\n  tag_58\n  jump\t// in\ntag_57:\n  swap1\n  0x00\n  mstore\n  keccak256(0x00, 0x20)\n  swap1\n  0x1f\n  add\n  0x20\n  swap1\n  div\n  dup2\n  add\n  swap3\n  dup3\n  tag_60\n  jumpi\n  0x00\n  dup6\n  sstore\n  jump(tag_63)\ntag_60:\n  dup3\n  0x1f\n  lt\n  tag_61\n  jumpi\n  dup1\n  mload\n  not(0xff)\n  and\n  dup4\n  dup1\n  add\n  or\n  dup6\n  sstore\n  jump(tag_63)\ntag_61:\n  dup3\n  dup1\n  add\n  0x01\n  add\n  dup6\n  sstore\n  dup3\n  iszero\n  tag_63\n  jumpi\n  swap2\n  dup3\n  add\ntag_62:\n  dup3\n  dup2\n  gt\n  iszero\n  tag_63\n  jumpi\n  dup3\n  mload\n  dup3\n  sstore\n  swap2\n  0x20\n  add\n  swap2\n  swap1\n  0x01\n  add\n  swap1\n  jump(tag_62)\ntag_63:\n  pop\n  tag_64\n  swap3\n  swap2\n  pop\n  tag_65\n  jump\t// in\ntag_64:\n  pop\n  swap1\n  jump\t// out\ntag_65:\ntag_66:\n  dup1\n  dup3\n  gt\n  iszero\n  tag_64\n  jumpi\n  0x00\n  dup2\n  sstore\n  0x01\n  add\n  jump(tag_66)\n    /* \"#utility.yul\":14:141   */\ntag_68:\n    /* \"#utility.yul\":75:85   */\n  0x4e487b71\n    /* \"#utility.yul\":70:73   */\n  0xe0\n    /* \"#utility.yul\":66:86   */\n  shl\n    /* \"#utility.yul\":63:64   */\n  0x00\n    /* \"#utility.yul\":56:87   */\n  mstore\n    /* \"#utility.yul\":106:110   */\n  0x11\n    /* \"#utility.yul\":103:104   */\n  0x04\n    /* \"#utility.yul\":96:111   */\n  mstore\n    /* \"#utility.yul\":130:134   */\n  0x24\n    /* \"#utility.yul\":127:128   */\n  0x00\n    /* \"#utility.yul\":120:135   */\n  revert\n    /* \"#utility.yul\":146:568   */\ntag_69:\n    /* \"#utility.yul\":235:236   */\n  0x01\n    /* \"#utility.yul\":278:283   */\n  dup2\n    /* \"#utility.yul\":235:236   */\n  dup2\n    /* \"#utility.yul\":292:562   */\ntag_74:\n    /* \"#utility.yul\":313:320   */\n  dup1\n    /* \"#utility.yul\":303:311   */\n  dup6\n    /* \"#utility.yul\":300:321   */\n  gt\n    /* \"#utility.yul\":292:562   */\n  iszero\n  tag_76\n  jumpi\n    /* \"#utility.yul\":372:376   */\n  dup2\n    /* \"#utility.yul\":368:369   */\n  0x00\n    /* \"#utility.yul\":364:370   */\n  not\n    /* \"#utility.yul\":360:377   */\n  div\n    /* \"#utility.yul\":354:358   */\n  dup3\n    /* \"#utility.yul\":351:378   */\n  gt\n    /* \"#utility.yul\":348:401   */\n  iszero\n  tag_78\n  jumpi\n    /* \"#utility.yul\":381:399   */\n  tag_78\n  tag_68\n  jump\t// in\ntag_78:\n    /* \"#utility.yul\":431:438   */\n  dup1\n    /* \"#utility.yul\":421:429   */\n  dup6\n    /* \"#utility.yul\":417:439   */\n  and\n    /* \"#utility.yul\":414:469   */\n  iszero\n  tag_79\n  jumpi\n    /* \"#utility.yul\":451:467   */\n  swap2\n  dup2\n  mul\n  swap2\n    /* \"#utility.yul\":414:469   */\ntag_79:\n    /* \"#utility.yul\":530:552   */\n  swap4\n  dup5\n  shr\n  swap4\n    /* \"#utility.yul\":490:505   */\n  swap1\n  dup1\n  mul\n  swap1\n    /* \"#utility.yul\":292:562   */\n  jump(tag_74)\ntag_76:\n    /* \"#utility.yul\":296:299   */\n  pop\n    /* \"#utility.yul\":146:568   */\n  swap3\n  pop\n  swap3\n  swap1\n  pop\n  jump\t// out\n    /* \"#utility.yul\":573:1379   */\ntag_70:\n    /* \"#utility.yul\":622:627   */\n  0x00\n    /* \"#utility.yul\":652:660   */\n  dup3\n    /* \"#utility.yul\":642:722   */\n  tag_81\n  jumpi\n  pop\n    /* \"#utility.yul\":693:694   */\n  0x01\n    /* \"#utility.yul\":707:712   */\n  jump(tag_80)\n    /* \"#utility.yul\":642:722   */\ntag_81:\n    /* \"#utility.yul\":741:745   */\n  dup2\n    /* \"#utility.yul\":731:807   */\n  tag_82\n  jumpi\n  pop\n    /* \"#utility.yul\":778:779   */\n  0x00\n    /* \"#utility.yul\":792:797   */\n  jump(tag_80)\n    /* \"#utility.yul\":731:807   */\ntag_82:\n    /* \"#utility.yul\":823:827   */\n  dup2\n    /* \"#utility.yul\":841:842   */\n  0x01\n    /* \"#utility.yul\":836:895   */\n  dup2\n  eq\n  tag_84\n  jumpi\n    /* \"#utility.yul\":909:910   */\n  0x02\n    /* \"#utility.yul\":904:1034   */\n  dup2\n  eq\n  tag_85\n  jumpi\n    /* \"#utility.yul\":816:1034   */\n  jump(tag_83)\n    /* \"#utility.yul\":836:895   */\ntag_84:\n    /* \"#utility.yul\":866:867   */\n  0x01\n    /* \"#utility.yul\":857:867   */\n  swap2\n  pop\n    /* \"#utility.yul\":880:885   */\n  pop\n  jump(tag_80)\n    /* \"#utility.yul\":904:1034   */\ntag_85:\n    /* \"#utility.yul\":941:944   */\n  0xff\n    /* \"#utility.yul\":931:939   */\n  dup5\n    /* \"#utility.yul\":928:945   */\n  gt\n    /* \"#utility.yul\":925:968   */\n  iszero\n  tag_87\n  jumpi\n    /* \"#utility.yul\":948:966   */\n  tag_87\n  tag_68\n  jump\t// in\ntag_87:\n  pop\n  pop\n    /* \"#utility.yul\":1004:1005   */\n  0x01\n    /* \"#utility.yul\":990:1006   */\n  dup3\n  shl\n    /* \"#utility.yul\":1019:1024   */\n  jump(tag_80)\n    /* \"#utility.yul\":816:1034   */\ntag_83:\n  pop\n    /* \"#utility.yul\":1118:1120   */\n  0x20\n    /* \"#utility.yul\":1108:1116   */\n  dup4\n    /* \"#utility.yul\":1105:1121   */\n  lt\n    /* \"#utility.yul\":1099:1102   */\n  0x0133\n    /* \"#utility.yul\":1093:1097   */\n  dup4\n    /* \"#utility.yul\":1090:1103   */\n  lt\n    /* \"#utility.yul\":1086:1122   */\n  and\n    /* \"#utility.yul\":1080:1082   */\n  0x4e\n    /* \"#utility.yul\":1070:1078   */\n  dup5\n    /* \"#utility.yul\":1067:1083   */\n  lt\n    /* \"#utility.yul\":1062:1064   */\n  0x0b\n    /* \"#utility.yul\":1056:1060   */\n  dup5\n    /* \"#utility.yul\":1053:1065   */\n  lt\n    /* \"#utility.yul\":1049:1084   */\n  and\n    /* \"#utility.yul\":1046:1123   */\n  or\n    /* \"#utility.yul\":1043:1202   */\n  iszero\n  tag_88\n  jumpi\n  pop\n    /* \"#utility.yul\":1155:1174   */\n  dup2\n  dup2\n  exp\n    /* \"#utility.yul\":1187:1192   */\n  jump(tag_80)\n    /* \"#utility.yul\":1043:1202   */\ntag_88:\n    /* \"#utility.yul\":1234:1268   */\n  tag_89\n    /* \"#utility.yul\":1259:1267   */\n  dup4\n    /* \"#utility.yul\":1253:1257   */\n  dup4\n    /* \"#utility.yul\":1234:1268   */\n  tag_69\n  jump\t// in\ntag_89:\n    /* \"#utility.yul\":1304:1310   */\n  dup1\n    /* \"#utility.yul\":1300:1301   */\n  0x00\n    /* \"#utility.yul\":1296:1302   */\n  not\n    /* \"#utility.yul\":1292:1311   */\n  div\n    /* \"#utility.yul\":1283:1290   */\n  dup3\n    /* \"#utility.yul\":1280:1312   */\n  gt\n    /* \"#utility.yul\":1277:1335   */\n  iszero\n  tag_91\n  jumpi\n    /* \"#utility.yul\":1315:1333   */\n  tag_91\n  tag_68\n  jump\t// in\ntag_91:\n    /* \"#utility.yul\":1353:1373   */\n  mul\n  swap1\n  pop\n    /* \"#utility.yul\":573:1379   */\ntag_80:\n  swap3\n  swap2\n  pop\n  pop\n  jump\t// out\n    /* \"#utility.yul\":1384:1524   */\ntag_21:\n    /* \"#utility.yul\":1442:1447   */\n  0x00\n    /* \"#utility.yul\":1471:1518   */\n  tag_93\n    /* \"#utility.yul\":1512:1516   */\n  0xff\n    /* \"#utility.yul\":1502:1510   */\n  dup5\n    /* \"#utility.yul\":1498:1517   */\n  and\n    /* \"#utility.yul\":1492:1496   */\n  dup4\n    /* \"#utility.yul\":1471:1518   */\n  tag_70\n  jump\t// in\ntag_93:\n    /* \"#utility.yul\":1462:1518   */\n  swap4\n    /* \"#utility.yul\":1384:1524   */\n  swap3\n  pop\n  pop\n  pop\n  jump\t// out\n    /* \"#utility.yul\":1529:1697   */\ntag_23:\n    /* \"#utility.yul\":1569:1576   */\n  0x00\n    /* \"#utility.yul\":1635:1636   */\n  dup2\n    /* \"#utility.yul\":1631:1632   */\n  0x00\n    /* \"#utility.yul\":1627:1633   */\n  not\n    /* \"#utility.yul\":1623:1637   */\n  div\n    /* \"#utility.yul\":1620:1621   */\n  dup4\n    /* \"#utility.yul\":1617:1638   */\n  gt\n    /* \"#utility.yul\":1612:1613   */\n  dup3\n    /* \"#utility.yul\":1605:1614   */\n  iszero\n    /* \"#utility.yul\":1598:1615   */\n  iszero\n    /* \"#utility.yul\":1594:1639   */\n  and\n    /* \"#utility.yul\":1591:1662   */\n  iszero\n  tag_96\n  jumpi\n    /* \"#utility.yul\":1642:1660   */\n  tag_96\n  tag_68\n  jump\t// in\ntag_96:\n  pop\n    /* \"#utility.yul\":1682:1691   */\n  mul\n  swap1\n    /* \"#utility.yul\":1529:1697   */\n  jump\t// out\n    /* \"#utility.yul\":2062:2190   */\ntag_36:\n    /* \"#utility.yul\":2102:2105   */\n  0x00\n    /* \"#utility.yul\":2133:2134   */\n  dup3\n    /* \"#utility.yul\":2129:2135   */\n  not\n    /* \"#utility.yul\":2126:2127   */\n  dup3\n    /* \"#utility.yul\":2123:2136   */\n  gt\n    /* \"#utility.yul\":2120:2159   */\n  iszero\n  tag_100\n  jumpi\n    /* \"#utility.yul\":2139:2157   */\n  tag_100\n  tag_68\n  jump\t// in\ntag_100:\n  pop\n    /* \"#utility.yul\":2175:2184   */\n  add\n  swap1\n    /* \"#utility.yul\":2062:2190   */\n  jump\t// out\n    /* \"#utility.yul\":2722:3102   */\ntag_58:\n    /* \"#utility.yul\":2801:2802   */\n  0x01\n    /* \"#utility.yul\":2797:2809   */\n  dup2\n  dup2\n  shr\n  swap1\n    /* \"#utility.yul\":2844:2856   */\n  dup3\n  and\n  dup1\n    /* \"#utility.yul\":2865:2926   */\n  tag_104\n  jumpi\n    /* \"#utility.yul\":2919:2923   */\n  0x7f\n    /* \"#utility.yul\":2911:2917   */\n  dup3\n    /* \"#utility.yul\":2907:2924   */\n  and\n    /* \"#utility.yul\":2897:2924   */\n  swap2\n  pop\n    /* \"#utility.yul\":2865:2926   */\ntag_104:\n    /* \"#utility.yul\":2972:2974   */\n  0x20\n    /* \"#utility.yul\":2964:2970   */\n  dup3\n    /* \"#utility.yul\":2961:2975   */\n  lt\n    /* \"#utility.yul\":2941:2959   */\n  dup2\n    /* \"#utility.yul\":2938:2976   */\n  sub\n    /* \"#utility.yul\":2935:3096   */\n  tag_105\n  jumpi\n    /* \"#utility.yul\":3018:3028   */\n  0x4e487b71\n    /* \"#utility.yul\":3013:3016   */\n  0xe0\n    /* \"#utility.yul\":3009:3029   */\n  shl\n    /* \"#utility.yul\":3006:3007   */\n  0x00\n    /* \"#utility.yul\":2999:3030   */\n  mstore\n    /* \"#utility.yul\":3053:3057   */\n  0x22\n    /* \"#utility.yul\":3050:3051   */\n  0x04\n    /* \"#utility.yul\":3043:3058   */\n  mstore\n    /* \"#utility.yul\":3081:3085   */\n  0x24\n    /* \"#utility.yul\":3078:3079   */\n  0x00\n    /* \"#utility.yul\":3071:3086   */\n  revert\n    /* \"#utility.yul\":2935:3096   */\ntag_105:\n  pop\n    /* \"#utility.yul\":2722:3102   */\n  swap2\n  swap1\n  pop\n  jump\t// out\ntag_71:\n    /* \"AWEtoken.sol\":306:937  contract AWEtoken is ERC20, ERC20Burnable, Pausable, Ownable {... */\n  dataSize(sub_0)\n  dup1\n  dataOffset(sub_0)\n  0x00\n  codecopy\n  0x00\n  return\nstop\n\nsub_0: assembly {\n        /* \"AWEtoken.sol\":306:937  contract AWEtoken is ERC20, ERC20Burnable, Pausable, Ownable {... */\n      mstore(0x40, 0x80)\n      callvalue\n      dup1\n      iszero\n      tag_1\n      jumpi\n      0x00\n      dup1\n      revert\n    tag_1:\n      pop\n      jumpi(tag_2, lt(calldatasize, 0x04))\n      shr(0xe0, calldataload(0x00))\n      dup1\n      0x70a08231\n      gt\n      tag_23\n      jumpi\n      dup1\n      0x95d89b41\n      gt\n      tag_24\n      jumpi\n      dup1\n      0xa9059cbb\n      gt\n      tag_25\n      jumpi\n      dup1\n      0xa9059cbb\n      eq\n      tag_20\n      jumpi\n      dup1\n      0xdd62ed3e\n      eq\n      tag_21\n      jumpi\n      dup1\n      0xf2fde38b\n      eq\n      tag_22\n      jumpi\n      0x00\n      dup1\n      revert\n    tag_25:\n      dup1\n      0x95d89b41\n      eq\n      tag_18\n      jumpi\n      dup1\n      0xa457c2d7\n      eq\n      tag_19\n      jumpi\n      0x00\n      dup1\n      revert\n    tag_24:\n      dup1\n      0x79cc6790\n      gt\n      tag_26\n      jumpi\n      dup1\n      0x79cc6790\n      eq\n      tag_15\n      jumpi\n      dup1\n      0x8456cb59\n      eq\n      tag_16\n      jumpi\n      dup1\n      0x8da5cb5b\n      eq\n      tag_17\n      jumpi\n      0x00\n      dup1\n      revert\n    tag_26:\n      dup1\n      0x70a08231\n      eq\n      tag_13\n      jumpi\n      dup1\n      0x715018a6\n      eq\n      tag_14\n      jumpi\n      0x00\n      dup1\n      revert\n    tag_23:\n      dup1\n      0x39509351\n      gt\n      tag_27\n      jumpi\n      dup1\n      0x40c10f19\n      gt\n      tag_28\n      jumpi\n      dup1\n      0x40c10f19\n      eq\n      tag_10\n      jumpi\n      dup1\n      0x42966c68\n      eq\n      tag_11\n      jumpi\n      dup1\n      0x5c975abb\n      eq\n      tag_12\n      jumpi\n      0x00\n      dup1\n      revert\n    tag_28:\n      dup1\n      0x39509351\n      eq\n      tag_8\n      jumpi\n      dup1\n      0x3f4ba83a\n      eq\n      tag_9\n      jumpi\n      0x00\n      dup1\n      revert\n    tag_27:\n      dup1\n      0x18160ddd\n      gt\n      tag_29\n      jumpi\n      dup1\n      0x18160ddd\n      eq\n      tag_5\n      jumpi\n      dup1\n      0x23b872dd\n      eq\n      tag_6\n      jumpi\n      dup1\n      0x313ce567\n      eq\n      tag_7\n      jumpi\n      0x00\n      dup1\n      revert\n    tag_29:\n      dup1\n      0x06fdde03\n      eq\n      tag_3\n      jumpi\n      dup1\n      0x095ea7b3\n      eq\n      tag_4\n      jumpi\n    tag_2:\n      0x00\n      dup1\n      revert\n        /* \"@openzeppelin/contracts/token/ERC20/ERC20.sol\":2156:2254   */\n    tag_3:\n      tag_30\n      tag_31\n      jump\t// in\n    tag_30:\n      mload(0x40)\n      tag_32\n      swap2\n      swap1\n      tag_33\n      jump\t// in\n    tag_32:\n      mload(0x40)\n      dup1\n      swap2\n      sub\n      swap1\n      return\n        /* \"@openzeppelin/contracts/token/ERC20/ERC20.sol\":4433:4630   */\n    tag_4:\n      tag_34\n      tag_35\n      calldatasize\n      0x04\n      tag_36\n      jump\t// in\n    tag_35:\n      tag_37\n      jump\t// in\n    tag_34:\n      mload(0x40)\n        /* \"#utility.yul\":1241:1255   */\n      swap1\n      iszero\n        /* \"#utility.yul\":1234:1256   */\n      iszero\n        /* \"#utility.yul\":1216:1257   */\n      dup2\n      mstore\n        /* \"#utility.yul\":1204:1206   */\n      0x20\n        /* \"#utility.yul\":1189:1207   */\n      add\n        /* \"@openzeppelin/contracts/token/ERC20/ERC20.sol\":4433:4630   */\n      tag_32\n        /* \"#utility.yul\":1076:1263   */\n      jump\n        /* \"@openzeppelin/contracts/token/ERC20/ERC20.sol\":3244:3350   */\n    tag_5:\n        /* \"@openzeppelin/contracts/token/ERC20/ERC20.sol\":3331:3343   */\n      sload(0x02)\n        /* \"@openzeppelin/contracts/token/ERC20/ERC20.sol\":3244:3350   */\n    tag_40:\n      mload(0x40)\n        /* \"#utility.yul\":1414:1439   */\n      swap1\n      dup2\n      mstore\n        /* \"#utility.yul\":1402:1404   */\n      0x20\n        /* \"#utility.yul\":1387:1405   */\n      add\n        /* \"@openzeppelin/contracts/token/ERC20/ERC20.sol\":3244:3350   */\n      tag_32\n        /* \"#utility.yul\":1268:1445   */\n      jump\n        /* \"@openzeppelin/contracts/token/ERC20/ERC20.sol\":5192:5478   */\n    tag_6:\n      tag_34\n      tag_45\n      calldatasize\n      0x04\n      tag_46\n      jump\t// in\n    tag_45:\n      tag_47\n      jump\t// in\n        /* \"@openzeppelin/contracts/token/ERC20/ERC20.sol\":3093:3184   */\n    tag_7:\n      mload(0x40)\n        /* \"@openzeppelin/contracts/token/ERC20/ERC20.sol\":3175:3177   */\n      0x12\n        /* \"#utility.yul\":1925:1961   */\n      dup2\n      mstore\n        /* \"#utility.yul\":1913:1915   */\n      0x20\n        /* \"#utility.yul\":1898:1916   */\n      add\n        /* \"@openzeppelin/contracts/token/ERC20/ERC20.sol\":3093:3184   */\n      tag_32\n        /* \"#utility.yul\":1783:1967   */\n      jump\n        /* \"@openzeppelin/contracts/token/ERC20/ERC20.sol\":5873:6107   */\n    tag_8:\n      tag_34\n      tag_54\n      calldatasize\n      0x04\n      tag_36\n      jump\t// in\n    tag_54:\n      tag_55\n      jump\t// in\n        /* \"AWEtoken.sol\":559:624  function unpause() public onlyOwner {... */\n    tag_9:\n      tag_57\n      tag_58\n      jump\t// in\n    tag_57:\n      stop\n        /* \"AWEtoken.sol\":632:727  function mint(address to, uint256 amount) public onlyOwner {... */\n    tag_10:\n      tag_57\n      tag_60\n      calldatasize\n      0x04\n      tag_36\n      jump\t// in\n    tag_60:\n      tag_61\n      jump\t// in\n        /* \"@openzeppelin/contracts/token/ERC20/extensions/ERC20Burnable.sol\":578:667   */\n    tag_11:\n      tag_57\n      tag_63\n      calldatasize\n      0x04\n      tag_64\n      jump\t// in\n    tag_63:\n      tag_65\n      jump\t// in\n        /* \"@openzeppelin/contracts/security/Pausable.sol\":1615:1699   */\n    tag_12:\n        /* \"@openzeppelin/contracts/security/Pausable.sol\":1685:1692   */\n      and(0xff, sload(0x05))\n        /* \"@openzeppelin/contracts/security/Pausable.sol\":1615:1699   */\n      jump(tag_34)\n        /* \"@openzeppelin/contracts/token/ERC20/ERC20.sol\":3408:3533   */\n    tag_13:\n      tag_40\n      tag_70\n      calldatasize\n      0x04\n      tag_71\n      jump\t// in\n    tag_70:\n      sub(shl(0xa0, 0x01), 0x01)\n        /* \"@openzeppelin/contracts/token/ERC20/ERC20.sol\":3508:3526   */\n      and\n        /* \"@openzeppelin/contracts/token/ERC20/ERC20.sol\":3482:3489   */\n      0x00\n        /* \"@openzeppelin/contracts/token/ERC20/ERC20.sol\":3508:3526   */\n      swap1\n      dup2\n      mstore\n      0x20\n      dup2\n      swap1\n      mstore\n      0x40\n      swap1\n      keccak256\n      sload\n      swap1\n        /* \"@openzeppelin/contracts/token/ERC20/ERC20.sol\":3408:3533   */\n      jump\n        /* \"@openzeppelin/contracts/access/Ownable.sol\":1831:1932   */\n    tag_14:\n      tag_57\n      tag_75\n      jump\t// in\n        /* \"@openzeppelin/contracts/token/ERC20/extensions/ERC20Burnable.sol\":973:1134   */\n    tag_15:\n      tag_57\n      tag_77\n      calldatasize\n      0x04\n      tag_36\n      jump\t// in\n    tag_77:\n      tag_78\n      jump\t// in\n        /* \"AWEtoken.sol\":490:551  function pause() public onlyOwner {... */\n    tag_16:\n      tag_57\n      tag_80\n      jump\t// in\n        /* \"@openzeppelin/contracts/access/Ownable.sol\":1201:1286   */\n    tag_17:\n        /* \"@openzeppelin/contracts/access/Ownable.sol\":1273:1279   */\n      sload(0x05)\n      0x0100\n      swap1\n      div\n      sub(shl(0xa0, 0x01), 0x01)\n      and\n        /* \"@openzeppelin/contracts/access/Ownable.sol\":1201:1286   */\n      mload(0x40)\n      sub(shl(0xa0, 0x01), 0x01)\n        /* \"#utility.yul\":2512:2567   */\n      swap1\n      swap2\n      and\n        /* \"#utility.yul\":2494:2568   */\n      dup2\n      mstore\n        /* \"#utility.yul\":2482:2484   */\n      0x20\n        /* \"#utility.yul\":2467:2485   */\n      add\n        /* \"@openzeppelin/contracts/access/Ownable.sol\":1201:1286   */\n      tag_32\n        /* \"#utility.yul\":2348:2574   */\n      jump\n        /* \"@openzeppelin/contracts/token/ERC20/ERC20.sol\":2367:2469   */\n    tag_18:\n      tag_30\n      tag_86\n      jump\t// in\n        /* \"@openzeppelin/contracts/token/ERC20/ERC20.sol\":6594:7021   */\n    tag_19:\n      tag_34\n      tag_89\n      calldatasize\n      0x04\n      tag_36\n      jump\t// in\n    tag_89:\n      tag_90\n      jump\t// in\n        /* \"@openzeppelin/contracts/token/ERC20/ERC20.sol\":3729:3918   */\n    tag_20:\n      tag_34\n      tag_93\n      calldatasize\n      0x04\n      tag_36\n      jump\t// in\n    tag_93:\n      tag_94\n      jump\t// in\n        /* \"@openzeppelin/contracts/token/ERC20/ERC20.sol\":3976:4125   */\n    tag_21:\n      tag_40\n      tag_97\n      calldatasize\n      0x04\n      tag_98\n      jump\t// in\n    tag_97:\n      sub(shl(0xa0, 0x01), 0x01)\n        /* \"@openzeppelin/contracts/token/ERC20/ERC20.sol\":4091:4109   */\n      swap2\n      dup3\n      and\n        /* \"@openzeppelin/contracts/token/ERC20/ERC20.sol\":4065:4072   */\n      0x00\n        /* \"@openzeppelin/contracts/token/ERC20/ERC20.sol\":4091:4109   */\n      swap1\n      dup2\n      mstore\n        /* \"@openzeppelin/contracts/token/ERC20/ERC20.sol\":4091:4102   */\n      0x01\n        /* \"@openzeppelin/contracts/token/ERC20/ERC20.sol\":4091:4109   */\n      0x20\n      swap1\n      dup2\n      mstore\n      0x40\n      dup1\n      dup4\n      keccak256\n        /* \"@openzeppelin/contracts/token/ERC20/ERC20.sol\":4091:4118   */\n      swap4\n      swap1\n      swap5\n      and\n      dup3\n      mstore\n      swap2\n      swap1\n      swap2\n      mstore\n      keccak256\n      sload\n      swap1\n        /* \"@openzeppelin/contracts/token/ERC20/ERC20.sol\":3976:4125   */\n      jump\n        /* \"@openzeppelin/contracts/access/Ownable.sol\":2081:2279   */\n    tag_22:\n      tag_57\n      tag_102\n      calldatasize\n      0x04\n      tag_71\n      jump\t// in\n    tag_102:\n      tag_103\n      jump\t// in\n        /* \"@openzeppelin/contracts/token/ERC20/ERC20.sol\":2156:2254   */\n    tag_31:\n        /* \"@openzeppelin/contracts/token/ERC20/ERC20.sol\":2210:2223   */\n      0x60\n        /* \"@openzeppelin/contracts/token/ERC20/ERC20.sol\":2242:2247   */\n      0x03\n        /* \"@openzeppelin/contracts/token/ERC20/ERC20.sol\":2235:2247   */\n      dup1\n      sload\n      tag_106\n      swap1\n      tag_107\n      jump\t// in\n    tag_106:\n      dup1\n      0x1f\n      add\n      0x20\n      dup1\n      swap2\n      div\n      mul\n      0x20\n      add\n      mload(0x40)\n      swap1\n      dup2\n      add\n      0x40\n      mstore\n      dup1\n      swap3\n      swap2\n      swap1\n      dup2\n      dup2\n      mstore\n      0x20\n      add\n      dup3\n      dup1\n      sload\n      tag_108\n      swap1\n      tag_107\n      jump\t// in\n    tag_108:\n      dup1\n      iszero\n      tag_109\n      jumpi\n      dup1\n      0x1f\n      lt\n      tag_110\n      jumpi\n      0x0100\n      dup1\n      dup4\n      sload\n      div\n      mul\n      dup4\n      mstore\n      swap2\n      0x20\n      add\n      swap2\n      jump(tag_109)\n    tag_110:\n      dup3\n      add\n      swap2\n      swap1\n      0x00\n      mstore\n      keccak256(0x00, 0x20)\n      swap1\n    tag_111:\n      dup2\n      sload\n      dup2\n      mstore\n      swap1\n      0x01\n      add\n      swap1\n      0x20\n      add\n      dup1\n      dup4\n      gt\n      tag_111\n      jumpi\n      dup3\n      swap1\n      sub\n      0x1f\n      and\n      dup3\n      add\n      swap2\n    tag_109:\n      pop\n      pop\n      pop\n      pop\n      pop\n      swap1\n      pop\n        /* \"@openzeppelin/contracts/token/ERC20/ERC20.sol\":2156:2254   */\n      swap1\n      jump\t// out\n        /* \"@openzeppelin/contracts/token/ERC20/ERC20.sol\":4433:4630   */\n    tag_37:\n        /* \"@openzeppelin/contracts/token/ERC20/ERC20.sol\":4516:4520   */\n      0x00\n        /* \"@openzeppelin/contracts/utils/Context.sol\":719:729   */\n      caller\n        /* \"@openzeppelin/contracts/token/ERC20/ERC20.sol\":4570:4602   */\n      tag_115\n        /* \"@openzeppelin/contracts/utils/Context.sol\":719:729   */\n      dup2\n        /* \"@openzeppelin/contracts/token/ERC20/ERC20.sol\":4586:4593   */\n      dup6\n        /* \"@openzeppelin/contracts/token/ERC20/ERC20.sol\":4595:4601   */\n      dup6\n        /* \"@openzeppelin/contracts/token/ERC20/ERC20.sol\":4570:4578   */\n      tag_116\n        /* \"@openzeppelin/contracts/token/ERC20/ERC20.sol\":4570:4602   */\n      jump\t// in\n    tag_115:\n      pop\n        /* \"@openzeppelin/contracts/token/ERC20/ERC20.sol\":4619:4623   */\n      0x01\n      swap4\n        /* \"@openzeppelin/contracts/token/ERC20/ERC20.sol\":4433:4630   */\n      swap3\n      pop\n      pop\n      pop\n      jump\t// out\n        /* \"@openzeppelin/contracts/token/ERC20/ERC20.sol\":5192:5478   */\n    tag_47:\n        /* \"@openzeppelin/contracts/token/ERC20/ERC20.sol\":5319:5323   */\n      0x00\n        /* \"@openzeppelin/contracts/utils/Context.sol\":719:729   */\n      caller\n        /* \"@openzeppelin/contracts/token/ERC20/ERC20.sol\":5375:5413   */\n      tag_120\n        /* \"@openzeppelin/contracts/token/ERC20/ERC20.sol\":5391:5395   */\n      dup6\n        /* \"@openzeppelin/contracts/utils/Context.sol\":719:729   */\n      dup3\n        /* \"@openzeppelin/contracts/token/ERC20/ERC20.sol\":5406:5412   */\n      dup6\n        /* \"@openzeppelin/contracts/token/ERC20/ERC20.sol\":5375:5390   */\n      tag_121\n        /* \"@openzeppelin/contracts/token/ERC20/ERC20.sol\":5375:5413   */\n      jump\t// in\n    tag_120:\n        /* \"@openzeppelin/contracts/token/ERC20/ERC20.sol\":5423:5450   */\n      tag_122\n        /* \"@openzeppelin/contracts/token/ERC20/ERC20.sol\":5433:5437   */\n      dup6\n        /* \"@openzeppelin/contracts/token/ERC20/ERC20.sol\":5439:5441   */\n      dup6\n        /* \"@openzeppelin/contracts/token/ERC20/ERC20.sol\":5443:5449   */\n      dup6\n        /* \"@openzeppelin/contracts/token/ERC20/ERC20.sol\":5423:5432   */\n      tag_123\n        /* \"@openzeppelin/contracts/token/ERC20/ERC20.sol\":5423:5450   */\n      jump\t// in\n    tag_122:\n      pop\n        /* \"@openzeppelin/contracts/token/ERC20/ERC20.sol\":5467:5471   */\n      0x01\n      swap5\n        /* \"@openzeppelin/contracts/token/ERC20/ERC20.sol\":5192:5478   */\n      swap4\n      pop\n      pop\n      pop\n      pop\n      jump\t// out\n        /* \"@openzeppelin/contracts/token/ERC20/ERC20.sol\":5873:6107   */\n    tag_55:\n        /* \"@openzeppelin/contracts/utils/Context.sol\":719:729   */\n      caller\n        /* \"@openzeppelin/contracts/token/ERC20/ERC20.sol\":5961:5965   */\n      0x00\n        /* \"@openzeppelin/contracts/token/ERC20/ERC20.sol\":4091:4109   */\n      dup2\n      dup2\n      mstore\n        /* \"@openzeppelin/contracts/token/ERC20/ERC20.sol\":4091:4102   */\n      0x01\n        /* \"@openzeppelin/contracts/token/ERC20/ERC20.sol\":4091:4109   */\n      0x20\n      swap1\n      dup2\n      mstore\n      0x40\n      dup1\n      dup4\n      keccak256\n      sub(shl(0xa0, 0x01), 0x01)\n        /* \"@openzeppelin/contracts/token/ERC20/ERC20.sol\":4091:4118   */\n      dup8\n      and\n      dup5\n      mstore\n      swap1\n      swap2\n      mstore\n      dup2\n      keccak256\n      sload\n        /* \"@openzeppelin/contracts/token/ERC20/ERC20.sol\":5961:5965   */\n      swap1\n      swap2\n        /* \"@openzeppelin/contracts/utils/Context.sol\":719:729   */\n      swap1\n        /* \"@openzeppelin/contracts/token/ERC20/ERC20.sol\":6015:6079   */\n      tag_115\n      swap1\n        /* \"@openzeppelin/contracts/utils/Context.sol\":719:729   */\n      dup3\n      swap1\n        /* \"@openzeppelin/contracts/token/ERC20/ERC20.sol\":4091:4118   */\n      dup7\n      swap1\n        /* \"@openzeppelin/contracts/token/ERC20/ERC20.sol\":6040:6078   */\n      tag_129\n      swap1\n        /* \"@openzeppelin/contracts/token/ERC20/ERC20.sol\":6068:6078   */\n      dup8\n      swap1\n        /* \"@openzeppelin/contracts/token/ERC20/ERC20.sol\":6040:6078   */\n      tag_130\n      jump\t// in\n    tag_129:\n        /* \"@openzeppelin/contracts/token/ERC20/ERC20.sol\":6015:6023   */\n      tag_116\n        /* \"@openzeppelin/contracts/token/ERC20/ERC20.sol\":6015:6079   */\n      jump\t// in\n        /* \"AWEtoken.sol\":559:624  function unpause() public onlyOwner {... */\n    tag_58:\n        /* \"@openzeppelin/contracts/access/Ownable.sol\":1094:1107   */\n      tag_132\n        /* \"@openzeppelin/contracts/access/Ownable.sol\":1094:1105   */\n      tag_133\n        /* \"@openzeppelin/contracts/access/Ownable.sol\":1094:1107   */\n      jump\t// in\n    tag_132:\n        /* \"AWEtoken.sol\":606:616  _unpause() */\n      tag_135\n        /* \"AWEtoken.sol\":606:614  _unpause */\n      tag_136\n        /* \"AWEtoken.sol\":606:616  _unpause() */\n      jump\t// in\n    tag_135:\n        /* \"AWEtoken.sol\":559:624  function unpause() public onlyOwner {... */\n      jump\t// out\n        /* \"AWEtoken.sol\":632:727  function mint(address to, uint256 amount) public onlyOwner {... */\n    tag_61:\n        /* \"@openzeppelin/contracts/access/Ownable.sol\":1094:1107   */\n      tag_138\n        /* \"@openzeppelin/contracts/access/Ownable.sol\":1094:1105   */\n      tag_133\n        /* \"@openzeppelin/contracts/access/Ownable.sol\":1094:1107   */\n      jump\t// in\n    tag_138:\n        /* \"AWEtoken.sol\":702:719  _mint(to, amount) */\n      tag_140\n        /* \"AWEtoken.sol\":708:710  to */\n      dup3\n        /* \"AWEtoken.sol\":712:718  amount */\n      dup3\n        /* \"AWEtoken.sol\":702:707  _mint */\n      tag_141\n        /* \"AWEtoken.sol\":702:719  _mint(to, amount) */\n      jump\t// in\n    tag_140:\n        /* \"AWEtoken.sol\":632:727  function mint(address to, uint256 amount) public onlyOwner {... */\n      pop\n      pop\n      jump\t// out\n        /* \"@openzeppelin/contracts/token/ERC20/extensions/ERC20Burnable.sol\":578:667   */\n    tag_65:\n        /* \"@openzeppelin/contracts/token/ERC20/extensions/ERC20Burnable.sol\":633:660   */\n      tag_143\n        /* \"@openzeppelin/contracts/utils/Context.sol\":719:729   */\n      caller\n        /* \"@openzeppelin/contracts/token/ERC20/extensions/ERC20Burnable.sol\":653:659   */\n      dup3\n        /* \"@openzeppelin/contracts/token/ERC20/extensions/ERC20Burnable.sol\":633:638   */\n      tag_145\n        /* \"@openzeppelin/contracts/token/ERC20/extensions/ERC20Burnable.sol\":633:660   */\n      jump\t// in\n    tag_143:\n        /* \"@openzeppelin/contracts/token/ERC20/extensions/ERC20Burnable.sol\":578:667   */\n      pop\n      jump\t// out\n        /* \"@openzeppelin/contracts/access/Ownable.sol\":1831:1932   */\n    tag_75:\n        /* \"@openzeppelin/contracts/access/Ownable.sol\":1094:1107   */\n      tag_149\n        /* \"@openzeppelin/contracts/access/Ownable.sol\":1094:1105   */\n      tag_133\n        /* \"@openzeppelin/contracts/access/Ownable.sol\":1094:1107   */\n      jump\t// in\n    tag_149:\n        /* \"@openzeppelin/contracts/access/Ownable.sol\":1895:1925   */\n      tag_135\n        /* \"@openzeppelin/contracts/access/Ownable.sol\":1922:1923   */\n      0x00\n        /* \"@openzeppelin/contracts/access/Ownable.sol\":1895:1913   */\n      tag_152\n        /* \"@openzeppelin/contracts/access/Ownable.sol\":1895:1925   */\n      jump\t// in\n        /* \"@openzeppelin/contracts/token/ERC20/extensions/ERC20Burnable.sol\":973:1134   */\n    tag_78:\n        /* \"@openzeppelin/contracts/token/ERC20/extensions/ERC20Burnable.sol\":1049:1095   */\n      tag_154\n        /* \"@openzeppelin/contracts/token/ERC20/extensions/ERC20Burnable.sol\":1065:1072   */\n      dup3\n        /* \"@openzeppelin/contracts/utils/Context.sol\":719:729   */\n      caller\n        /* \"@openzeppelin/contracts/token/ERC20/extensions/ERC20Burnable.sol\":1088:1094   */\n      dup4\n        /* \"@openzeppelin/contracts/token/ERC20/extensions/ERC20Burnable.sol\":1049:1064   */\n      tag_121\n        /* \"@openzeppelin/contracts/token/ERC20/extensions/ERC20Burnable.sol\":1049:1095   */\n      jump\t// in\n    tag_154:\n        /* \"@openzeppelin/contracts/token/ERC20/extensions/ERC20Burnable.sol\":1105:1127   */\n      tag_140\n        /* \"@openzeppelin/contracts/token/ERC20/extensions/ERC20Burnable.sol\":1111:1118   */\n      dup3\n        /* \"@openzeppelin/contracts/token/ERC20/extensions/ERC20Burnable.sol\":1120:1126   */\n      dup3\n        /* \"@openzeppelin/contracts/token/ERC20/extensions/ERC20Burnable.sol\":1105:1110   */\n      tag_145\n        /* \"@openzeppelin/contracts/token/ERC20/extensions/ERC20Burnable.sol\":1105:1127   */\n      jump\t// in\n        /* \"AWEtoken.sol\":490:551  function pause() public onlyOwner {... */\n    tag_80:\n        /* \"@openzeppelin/contracts/access/Ownable.sol\":1094:1107   */\n      tag_158\n        /* \"@openzeppelin/contracts/access/Ownable.sol\":1094:1105   */\n      tag_133\n        /* \"@openzeppelin/contracts/access/Ownable.sol\":1094:1107   */\n      jump\t// in\n    tag_158:\n        /* \"AWEtoken.sol\":535:543  _pause() */\n      tag_135\n        /* \"AWEtoken.sol\":535:541  _pause */\n      tag_161\n        /* \"AWEtoken.sol\":535:543  _pause() */\n      jump\t// in\n        /* \"@openzeppelin/contracts/token/ERC20/ERC20.sol\":2367:2469   */\n    tag_86:\n        /* \"@openzeppelin/contracts/token/ERC20/ERC20.sol\":2423:2436   */\n      0x60\n        /* \"@openzeppelin/contracts/token/ERC20/ERC20.sol\":2455:2462   */\n      0x04\n        /* \"@openzeppelin/contracts/token/ERC20/ERC20.sol\":2448:2462   */\n      dup1\n      sload\n      tag_106\n      swap1\n      tag_107\n      jump\t// in\n        /* \"@openzeppelin/contracts/token/ERC20/ERC20.sol\":6594:7021   */\n    tag_90:\n        /* \"@openzeppelin/contracts/utils/Context.sol\":719:729   */\n      caller\n        /* \"@openzeppelin/contracts/token/ERC20/ERC20.sol\":6687:6691   */\n      0x00\n        /* \"@openzeppelin/contracts/token/ERC20/ERC20.sol\":4091:4109   */\n      dup2\n      dup2\n      mstore\n        /* \"@openzeppelin/contracts/token/ERC20/ERC20.sol\":4091:4102   */\n      0x01\n        /* \"@openzeppelin/contracts/token/ERC20/ERC20.sol\":4091:4109   */\n      0x20\n      swap1\n      dup2\n      mstore\n      0x40\n      dup1\n      dup4\n      keccak256\n      sub(shl(0xa0, 0x01), 0x01)\n        /* \"@openzeppelin/contracts/token/ERC20/ERC20.sol\":4091:4118   */\n      dup8\n      and\n      dup5\n      mstore\n      swap1\n      swap2\n      mstore\n      dup2\n      keccak256\n      sload\n        /* \"@openzeppelin/contracts/token/ERC20/ERC20.sol\":6687:6691   */\n      swap1\n      swap2\n        /* \"@openzeppelin/contracts/utils/Context.sol\":719:729   */\n      swap1\n        /* \"@openzeppelin/contracts/token/ERC20/ERC20.sol\":6831:6846   */\n      dup4\n        /* \"@openzeppelin/contracts/token/ERC20/ERC20.sol\":6811:6827   */\n      dup2\n        /* \"@openzeppelin/contracts/token/ERC20/ERC20.sol\":6811:6846   */\n      lt\n      iszero\n        /* \"@openzeppelin/contracts/token/ERC20/ERC20.sol\":6803:6888   */\n      tag_172\n      jumpi\n      mload(0x40)\n      shl(0xe5, 0x461bcd)\n      dup2\n      mstore\n        /* \"#utility.yul\":3696:3698   */\n      0x20\n        /* \"@openzeppelin/contracts/token/ERC20/ERC20.sol\":6803:6888   */\n      0x04\n      dup3\n      add\n        /* \"#utility.yul\":3678:3699   */\n      mstore\n        /* \"#utility.yul\":3735:3737   */\n      0x25\n        /* \"#utility.yul\":3715:3733   */\n      0x24\n      dup3\n      add\n        /* \"#utility.yul\":3708:3738   */\n      mstore\n        /* \"#utility.yul\":3774:3808   */\n      0x45524332303a2064656372656173656420616c6c6f77616e63652062656c6f77\n        /* \"#utility.yul\":3754:3772   */\n      0x44\n      dup3\n      add\n        /* \"#utility.yul\":3747:3809   */\n      mstore\n        /* \"#utility.yul\":3845:3852   */\n      0x207a65726f000000000000000000000000000000000000000000000000000000\n        /* \"#utility.yul\":3825:3843   */\n      0x64\n      dup3\n      add\n        /* \"#utility.yul\":3818:3853   */\n      mstore\n        /* \"#utility.yul\":3870:3889   */\n      0x84\n      add\n        /* \"@openzeppelin/contracts/token/ERC20/ERC20.sol\":6803:6888   */\n    tag_173:\n      mload(0x40)\n      dup1\n      swap2\n      sub\n      swap1\n      revert\n    tag_172:\n        /* \"@openzeppelin/contracts/token/ERC20/ERC20.sol\":6922:6982   */\n      tag_122\n        /* \"@openzeppelin/contracts/token/ERC20/ERC20.sol\":6931:6936   */\n      dup3\n        /* \"@openzeppelin/contracts/token/ERC20/ERC20.sol\":6938:6945   */\n      dup7\n        /* \"@openzeppelin/contracts/token/ERC20/ERC20.sol\":6966:6981   */\n      dup7\n        /* \"@openzeppelin/contracts/token/ERC20/ERC20.sol\":6947:6963   */\n      dup5\n        /* \"@openzeppelin/contracts/token/ERC20/ERC20.sol\":6947:6981   */\n      sub\n        /* \"@openzeppelin/contracts/token/ERC20/ERC20.sol\":6922:6930   */\n      tag_116\n        /* \"@openzeppelin/contracts/token/ERC20/ERC20.sol\":6922:6982   */\n      jump\t// in\n        /* \"@openzeppelin/contracts/token/ERC20/ERC20.sol\":3729:3918   */\n    tag_94:\n        /* \"@openzeppelin/contracts/token/ERC20/ERC20.sol\":3808:3812   */\n      0x00\n        /* \"@openzeppelin/contracts/utils/Context.sol\":719:729   */\n      caller\n        /* \"@openzeppelin/contracts/token/ERC20/ERC20.sol\":3862:3890   */\n      tag_115\n        /* \"@openzeppelin/contracts/utils/Context.sol\":719:729   */\n      dup2\n        /* \"@openzeppelin/contracts/token/ERC20/ERC20.sol\":3879:3881   */\n      dup6\n        /* \"@openzeppelin/contracts/token/ERC20/ERC20.sol\":3883:3889   */\n      dup6\n        /* \"@openzeppelin/contracts/token/ERC20/ERC20.sol\":3862:3871   */\n      tag_123\n        /* \"@openzeppelin/contracts/token/ERC20/ERC20.sol\":3862:3890   */\n      jump\t// in\n        /* \"@openzeppelin/contracts/access/Ownable.sol\":2081:2279   */\n    tag_103:\n        /* \"@openzeppelin/contracts/access/Ownable.sol\":1094:1107   */\n      tag_181\n        /* \"@openzeppelin/contracts/access/Ownable.sol\":1094:1105   */\n      tag_133\n        /* \"@openzeppelin/contracts/access/Ownable.sol\":1094:1107   */\n      jump\t// in\n    tag_181:\n      sub(shl(0xa0, 0x01), 0x01)\n        /* \"@openzeppelin/contracts/access/Ownable.sol\":2169:2191   */\n      dup2\n      and\n        /* \"@openzeppelin/contracts/access/Ownable.sol\":2161:2234   */\n      tag_183\n      jumpi\n      mload(0x40)\n      shl(0xe5, 0x461bcd)\n      dup2\n      mstore\n        /* \"#utility.yul\":4102:4104   */\n      0x20\n        /* \"@openzeppelin/contracts/access/Ownable.sol\":2161:2234   */\n      0x04\n      dup3\n      add\n        /* \"#utility.yul\":4084:4105   */\n      mstore\n        /* \"#utility.yul\":4141:4143   */\n      0x26\n        /* \"#utility.yul\":4121:4139   */\n      0x24\n      dup3\n      add\n        /* \"#utility.yul\":4114:4144   */\n      mstore\n        /* \"#utility.yul\":4180:4214   */\n      0x4f776e61626c653a206e6577206f776e657220697320746865207a65726f2061\n        /* \"#utility.yul\":4160:4178   */\n      0x44\n      dup3\n      add\n        /* \"#utility.yul\":4153:4215   */\n      mstore\n        /* \"#utility.yul\":4251:4259   */\n      0x6464726573730000000000000000000000000000000000000000000000000000\n        /* \"#utility.yul\":4231:4249   */\n      0x64\n      dup3\n      add\n        /* \"#utility.yul\":4224:4260   */\n      mstore\n        /* \"#utility.yul\":4277:4296   */\n      0x84\n      add\n        /* \"@openzeppelin/contracts/access/Ownable.sol\":2161:2234   */\n      tag_173\n        /* \"#utility.yul\":3900:4302   */\n      jump\n        /* \"@openzeppelin/contracts/access/Ownable.sol\":2161:2234   */\n    tag_183:\n        /* \"@openzeppelin/contracts/access/Ownable.sol\":2244:2272   */\n      tag_143\n        /* \"@openzeppelin/contracts/access/Ownable.sol\":2263:2271   */\n      dup2\n        /* \"@openzeppelin/contracts/access/Ownable.sol\":2244:2262   */\n      tag_152\n        /* \"@openzeppelin/contracts/access/Ownable.sol\":2244:2272   */\n      jump\t// in\n        /* \"@openzeppelin/contracts/token/ERC20/ERC20.sol\":11786:11907   */\n    tag_104:\n      pop\n      pop\n      pop\n      jump\t// out\n        /* \"@openzeppelin/contracts/token/ERC20/ERC20.sol\":10110:10480   */\n    tag_116:\n      sub(shl(0xa0, 0x01), 0x01)\n        /* \"@openzeppelin/contracts/token/ERC20/ERC20.sol\":10241:10260   */\n      dup4\n      and\n        /* \"@openzeppelin/contracts/token/ERC20/ERC20.sol\":10233:10301   */\n      tag_190\n      jumpi\n      mload(0x40)\n      shl(0xe5, 0x461bcd)\n      dup2\n      mstore\n        /* \"#utility.yul\":4509:4511   */\n      0x20\n        /* \"@openzeppelin/contracts/token/ERC20/ERC20.sol\":10233:10301   */\n      0x04\n      dup3\n      add\n        /* \"#utility.yul\":4491:4512   */\n      mstore\n        /* \"#utility.yul\":4548:4550   */\n      0x24\n        /* \"#utility.yul\":4528:4546   */\n      dup1\n      dup3\n      add\n        /* \"#utility.yul\":4521:4551   */\n      mstore\n        /* \"#utility.yul\":4587:4621   */\n      0x45524332303a20617070726f76652066726f6d20746865207a65726f20616464\n        /* \"#utility.yul\":4567:4585   */\n      0x44\n      dup3\n      add\n        /* \"#utility.yul\":4560:4622   */\n      mstore\n      shl(0xe0, 0x72657373)\n        /* \"#utility.yul\":4638:4656   */\n      0x64\n      dup3\n      add\n        /* \"#utility.yul\":4631:4665   */\n      mstore\n        /* \"#utility.yul\":4682:4701   */\n      0x84\n      add\n        /* \"@openzeppelin/contracts/token/ERC20/ERC20.sol\":10233:10301   */\n      tag_173\n        /* \"#utility.yul\":4307:4707   */\n      jump\n        /* \"@openzeppelin/contracts/token/ERC20/ERC20.sol\":10233:10301   */\n    tag_190:\n      sub(shl(0xa0, 0x01), 0x01)\n        /* \"@openzeppelin/contracts/token/ERC20/ERC20.sol\":10319:10340   */\n      dup3\n      and\n        /* \"@openzeppelin/contracts/token/ERC20/ERC20.sol\":10311:10379   */\n      tag_193\n      jumpi\n      mload(0x40)\n      shl(0xe5, 0x461bcd)\n      dup2\n      mstore\n        /* \"#utility.yul\":4914:4916   */\n      0x20\n        /* \"@openzeppelin/contracts/token/ERC20/ERC20.sol\":10311:10379   */\n      0x04\n      dup3\n      add\n        /* \"#utility.yul\":4896:4917   */\n      mstore\n        /* \"#utility.yul\":4953:4955   */\n      0x22\n        /* \"#utility.yul\":4933:4951   */\n      0x24\n      dup3\n      add\n        /* \"#utility.yul\":4926:4956   */\n      mstore\n        /* \"#utility.yul\":4992:5026   */\n      0x45524332303a20617070726f766520746f20746865207a65726f206164647265\n        /* \"#utility.yul\":4972:4990   */\n      0x44\n      dup3\n      add\n        /* \"#utility.yul\":4965:5027   */\n      mstore\n      shl(0xf0, 0x7373)\n        /* \"#utility.yul\":5043:5061   */\n      0x64\n      dup3\n      add\n        /* \"#utility.yul\":5036:5068   */\n      mstore\n        /* \"#utility.yul\":5085:5104   */\n      0x84\n      add\n        /* \"@openzeppelin/contracts/token/ERC20/ERC20.sol\":10311:10379   */\n      tag_173\n        /* \"#utility.yul\":4712:5110   */\n      jump\n        /* \"@openzeppelin/contracts/token/ERC20/ERC20.sol\":10311:10379   */\n    tag_193:\n      sub(shl(0xa0, 0x01), 0x01)\n        /* \"@openzeppelin/contracts/token/ERC20/ERC20.sol\":10390:10408   */\n      dup4\n      dup2\n      and\n      0x00\n      dup2\n      dup2\n      mstore\n        /* \"@openzeppelin/contracts/token/ERC20/ERC20.sol\":10390:10401   */\n      0x01\n        /* \"@openzeppelin/contracts/token/ERC20/ERC20.sol\":10390:10408   */\n      0x20\n      swap1\n      dup2\n      mstore\n      0x40\n      dup1\n      dup4\n      keccak256\n        /* \"@openzeppelin/contracts/token/ERC20/ERC20.sol\":10390:10417   */\n      swap5\n      dup8\n      and\n      dup1\n      dup5\n      mstore\n      swap5\n      dup3\n      mstore\n      swap2\n      dup3\n      swap1\n      keccak256\n        /* \"@openzeppelin/contracts/token/ERC20/ERC20.sol\":10390:10426   */\n      dup6\n      swap1\n      sstore\n        /* \"@openzeppelin/contracts/token/ERC20/ERC20.sol\":10441:10473   */\n      swap1\n      mload\n        /* \"#utility.yul\":1414:1439   */\n      dup5\n      dup2\n      mstore\n        /* \"@openzeppelin/contracts/token/ERC20/ERC20.sol\":10441:10473   */\n      0x8c5be1e5ebec7d5bd14f71427d1e84f3dd0314c0f7b2291e5b200ac8c7c3b925\n      swap2\n        /* \"#utility.yul\":1387:1405   */\n      add\n        /* \"@openzeppelin/contracts/token/ERC20/ERC20.sol\":10441:10473   */\n      mload(0x40)\n      dup1\n      swap2\n      sub\n      swap1\n      log3\n        /* \"@openzeppelin/contracts/token/ERC20/ERC20.sol\":10110:10480   */\n      pop\n      pop\n      pop\n      jump\t// out\n        /* \"@openzeppelin/contracts/token/ERC20/ERC20.sol\":10761:11202   */\n    tag_121:\n      sub(shl(0xa0, 0x01), 0x01)\n        /* \"@openzeppelin/contracts/token/ERC20/ERC20.sol\":4091:4109   */\n      dup4\n      dup2\n      and\n        /* \"@openzeppelin/contracts/token/ERC20/ERC20.sol\":10891:10915   */\n      0x00\n        /* \"@openzeppelin/contracts/token/ERC20/ERC20.sol\":4091:4109   */\n      swap1\n      dup2\n      mstore\n        /* \"@openzeppelin/contracts/token/ERC20/ERC20.sol\":4091:4102   */\n      0x01\n        /* \"@openzeppelin/contracts/token/ERC20/ERC20.sol\":4091:4109   */\n      0x20\n      swap1\n      dup2\n      mstore\n      0x40\n      dup1\n      dup4\n      keccak256\n        /* \"@openzeppelin/contracts/token/ERC20/ERC20.sol\":4091:4118   */\n      swap4\n      dup7\n      and\n      dup4\n      mstore\n      swap3\n      swap1\n      mstore\n      keccak256\n      sload\n      not(0x00)\n        /* \"@openzeppelin/contracts/token/ERC20/ERC20.sol\":10957:10994   */\n      dup2\n      eq\n        /* \"@openzeppelin/contracts/token/ERC20/ERC20.sol\":10953:11196   */\n      tag_203\n      jumpi\n        /* \"@openzeppelin/contracts/token/ERC20/ERC20.sol\":11038:11044   */\n      dup2\n        /* \"@openzeppelin/contracts/token/ERC20/ERC20.sol\":11018:11034   */\n      dup2\n        /* \"@openzeppelin/contracts/token/ERC20/ERC20.sol\":11018:11044   */\n      lt\n      iszero\n        /* \"@openzeppelin/contracts/token/ERC20/ERC20.sol\":11010:11078   */\n      tag_200\n      jumpi\n      mload(0x40)\n      shl(0xe5, 0x461bcd)\n      dup2\n      mstore\n        /* \"#utility.yul\":5317:5319   */\n      0x20\n        /* \"@openzeppelin/contracts/token/ERC20/ERC20.sol\":11010:11078   */\n      0x04\n      dup3\n      add\n        /* \"#utility.yul\":5299:5320   */\n      mstore\n        /* \"#utility.yul\":5356:5358   */\n      0x1d\n        /* \"#utility.yul\":5336:5354   */\n      0x24\n      dup3\n      add\n        /* \"#utility.yul\":5329:5359   */\n      mstore\n        /* \"#utility.yul\":5395:5426   */\n      0x45524332303a20696e73756666696369656e7420616c6c6f77616e6365000000\n        /* \"#utility.yul\":5375:5393   */\n      0x44\n      dup3\n      add\n        /* \"#utility.yul\":5368:5427   */\n      mstore\n        /* \"#utility.yul\":5444:5462   */\n      0x64\n      add\n        /* \"@openzeppelin/contracts/token/ERC20/ERC20.sol\":11010:11078   */\n      tag_173\n        /* \"#utility.yul\":5115:5468   */\n      jump\n        /* \"@openzeppelin/contracts/token/ERC20/ERC20.sol\":11010:11078   */\n    tag_200:\n        /* \"@openzeppelin/contracts/token/ERC20/ERC20.sol\":11120:11171   */\n      tag_203\n        /* \"@openzeppelin/contracts/token/ERC20/ERC20.sol\":11129:11134   */\n      dup5\n        /* \"@openzeppelin/contracts/token/ERC20/ERC20.sol\":11136:11143   */\n      dup5\n        /* \"@openzeppelin/contracts/token/ERC20/ERC20.sol\":11164:11170   */\n      dup5\n        /* \"@openzeppelin/contracts/token/ERC20/ERC20.sol\":11145:11161   */\n      dup5\n        /* \"@openzeppelin/contracts/token/ERC20/ERC20.sol\":11145:11170   */\n      sub\n        /* \"@openzeppelin/contracts/token/ERC20/ERC20.sol\":11120:11128   */\n      tag_116\n        /* \"@openzeppelin/contracts/token/ERC20/ERC20.sol\":11120:11171   */\n      jump\t// in\n    tag_203:\n        /* \"@openzeppelin/contracts/token/ERC20/ERC20.sol\":10881:11202   */\n      pop\n        /* \"@openzeppelin/contracts/token/ERC20/ERC20.sol\":10761:11202   */\n      pop\n      pop\n      pop\n      jump\t// out\n        /* \"@openzeppelin/contracts/token/ERC20/ERC20.sol\":7475:8126   */\n    tag_123:\n      sub(shl(0xa0, 0x01), 0x01)\n        /* \"@openzeppelin/contracts/token/ERC20/ERC20.sol\":7601:7619   */\n      dup4\n      and\n        /* \"@openzeppelin/contracts/token/ERC20/ERC20.sol\":7593:7661   */\n      tag_205\n      jumpi\n      mload(0x40)\n      shl(0xe5, 0x461bcd)\n      dup2\n      mstore\n        /* \"#utility.yul\":5675:5677   */\n      0x20\n        /* \"@openzeppelin/contracts/token/ERC20/ERC20.sol\":7593:7661   */\n      0x04\n      dup3\n      add\n        /* \"#utility.yul\":5657:5678   */\n      mstore\n        /* \"#utility.yul\":5714:5716   */\n      0x25\n        /* \"#utility.yul\":5694:5712   */\n      0x24\n      dup3\n      add\n        /* \"#utility.yul\":5687:5717   */\n      mstore\n        /* \"#utility.yul\":5753:5787   */\n      0x45524332303a207472616e736665722066726f6d20746865207a65726f206164\n        /* \"#utility.yul\":5733:5751   */\n      0x44\n      dup3\n      add\n        /* \"#utility.yul\":5726:5788   */\n      mstore\n        /* \"#utility.yul\":5824:5831   */\n      0x6472657373000000000000000000000000000000000000000000000000000000\n        /* \"#utility.yul\":5804:5822   */\n      0x64\n      dup3\n      add\n        /* \"#utility.yul\":5797:5832   */\n      mstore\n        /* \"#utility.yul\":5849:5868   */\n      0x84\n      add\n        /* \"@openzeppelin/contracts/token/ERC20/ERC20.sol\":7593:7661   */\n      tag_173\n        /* \"#utility.yul\":5473:5874   */\n      jump\n        /* \"@openzeppelin/contracts/token/ERC20/ERC20.sol\":7593:7661   */\n    tag_205:\n      sub(shl(0xa0, 0x01), 0x01)\n        /* \"@openzeppelin/contracts/token/ERC20/ERC20.sol\":7679:7695   */\n      dup3\n      and\n        /* \"@openzeppelin/contracts/token/ERC20/ERC20.sol\":7671:7735   */\n      tag_208\n      jumpi\n      mload(0x40)\n      shl(0xe5, 0x461bcd)\n      dup2\n      mstore\n        /* \"#utility.yul\":6081:6083   */\n      0x20\n        /* \"@openzeppelin/contracts/token/ERC20/ERC20.sol\":7671:7735   */\n      0x04\n      dup3\n      add\n        /* \"#utility.yul\":6063:6084   */\n      mstore\n        /* \"#utility.yul\":6120:6122   */\n      0x23\n        /* \"#utility.yul\":6100:6118   */\n      0x24\n      dup3\n      add\n        /* \"#utility.yul\":6093:6123   */\n      mstore\n        /* \"#utility.yul\":6159:6193   */\n      0x45524332303a207472616e7366657220746f20746865207a65726f2061646472\n        /* \"#utility.yul\":6139:6157   */\n      0x44\n      dup3\n      add\n        /* \"#utility.yul\":6132:6194   */\n      mstore\n      shl(0xe8, 0x657373)\n        /* \"#utility.yul\":6210:6228   */\n      0x64\n      dup3\n      add\n        /* \"#utility.yul\":6203:6236   */\n      mstore\n        /* \"#utility.yul\":6253:6272   */\n      0x84\n      add\n        /* \"@openzeppelin/contracts/token/ERC20/ERC20.sol\":7671:7735   */\n      tag_173\n        /* \"#utility.yul\":5879:6278   */\n      jump\n        /* \"@openzeppelin/contracts/token/ERC20/ERC20.sol\":7671:7735   */\n    tag_208:\n        /* \"@openzeppelin/contracts/token/ERC20/ERC20.sol\":7746:7784   */\n      tag_211\n        /* \"@openzeppelin/contracts/token/ERC20/ERC20.sol\":7767:7771   */\n      dup4\n        /* \"@openzeppelin/contracts/token/ERC20/ERC20.sol\":7773:7775   */\n      dup4\n        /* \"@openzeppelin/contracts/token/ERC20/ERC20.sol\":7777:7783   */\n      dup4\n        /* \"@openzeppelin/contracts/token/ERC20/ERC20.sol\":7746:7766   */\n      tag_212\n        /* \"@openzeppelin/contracts/token/ERC20/ERC20.sol\":7746:7784   */\n      jump\t// in\n    tag_211:\n      sub(shl(0xa0, 0x01), 0x01)\n        /* \"@openzeppelin/contracts/token/ERC20/ERC20.sol\":7817:7832   */\n      dup4\n      and\n        /* \"@openzeppelin/contracts/token/ERC20/ERC20.sol\":7795:7814   */\n      0x00\n        /* \"@openzeppelin/contracts/token/ERC20/ERC20.sol\":7817:7832   */\n      swap1\n      dup2\n      mstore\n      0x20\n      dup2\n      swap1\n      mstore\n      0x40\n      swap1\n      keccak256\n      sload\n        /* \"@openzeppelin/contracts/token/ERC20/ERC20.sol\":7850:7871   */\n      dup2\n      dup2\n      lt\n      iszero\n        /* \"@openzeppelin/contracts/token/ERC20/ERC20.sol\":7842:7914   */\n      tag_213\n      jumpi\n      mload(0x40)\n      shl(0xe5, 0x461bcd)\n      dup2\n      mstore\n        /* \"#utility.yul\":6485:6487   */\n      0x20\n        /* \"@openzeppelin/contracts/token/ERC20/ERC20.sol\":7842:7914   */\n      0x04\n      dup3\n      add\n        /* \"#utility.yul\":6467:6488   */\n      mstore\n        /* \"#utility.yul\":6524:6526   */\n      0x26\n        /* \"#utility.yul\":6504:6522   */\n      0x24\n      dup3\n      add\n        /* \"#utility.yul\":6497:6527   */\n      mstore\n        /* \"#utility.yul\":6563:6597   */\n      0x45524332303a207472616e7366657220616d6f756e7420657863656564732062\n        /* \"#utility.yul\":6543:6561   */\n      0x44\n      dup3\n      add\n        /* \"#utility.yul\":6536:6598   */\n      mstore\n        /* \"#utility.yul\":6634:6642   */\n      0x616c616e63650000000000000000000000000000000000000000000000000000\n        /* \"#utility.yul\":6614:6632   */\n      0x64\n      dup3\n      add\n        /* \"#utility.yul\":6607:6643   */\n      mstore\n        /* \"#utility.yul\":6660:6679   */\n      0x84\n      add\n        /* \"@openzeppelin/contracts/token/ERC20/ERC20.sol\":7842:7914   */\n      tag_173\n        /* \"#utility.yul\":6283:6685   */\n      jump\n        /* \"@openzeppelin/contracts/token/ERC20/ERC20.sol\":7842:7914   */\n    tag_213:\n      sub(shl(0xa0, 0x01), 0x01)\n        /* \"@openzeppelin/contracts/token/ERC20/ERC20.sol\":7948:7963   */\n      dup1\n      dup6\n      and\n        /* \"@openzeppelin/contracts/token/ERC20/ERC20.sol\":7948:7957   */\n      0x00\n        /* \"@openzeppelin/contracts/token/ERC20/ERC20.sol\":7948:7963   */\n      swap1\n      dup2\n      mstore\n      0x20\n      dup2\n      swap1\n      mstore\n      0x40\n      dup1\n      dup3\n      keccak256\n        /* \"@openzeppelin/contracts/token/ERC20/ERC20.sol\":7966:7986   */\n      dup6\n      dup6\n      sub\n        /* \"@openzeppelin/contracts/token/ERC20/ERC20.sol\":7948:7986   */\n      swap1\n      sstore\n        /* \"@openzeppelin/contracts/token/ERC20/ERC20.sol\":8006:8019   */\n      swap2\n      dup6\n      and\n      dup2\n      mstore\n      swap1\n      dup2\n      keccak256\n        /* \"@openzeppelin/contracts/token/ERC20/ERC20.sol\":8006:8029   */\n      dup1\n      sload\n        /* \"@openzeppelin/contracts/token/ERC20/ERC20.sol\":7980:7986   */\n      dup5\n      swap3\n        /* \"@openzeppelin/contracts/token/ERC20/ERC20.sol\":7948:7957   */\n      swap1\n        /* \"@openzeppelin/contracts/token/ERC20/ERC20.sol\":8006:8029   */\n      tag_216\n      swap1\n        /* \"@openzeppelin/contracts/token/ERC20/ERC20.sol\":7980:7986   */\n      dup5\n      swap1\n        /* \"@openzeppelin/contracts/token/ERC20/ERC20.sol\":8006:8029   */\n      tag_130\n      jump\t// in\n    tag_216:\n      swap3\n      pop\n      pop\n      dup2\n      swap1\n      sstore\n      pop\n        /* \"@openzeppelin/contracts/token/ERC20/ERC20.sol\":8060:8062   */\n      dup3\n      sub(shl(0xa0, 0x01), 0x01)\n        /* \"@openzeppelin/contracts/token/ERC20/ERC20.sol\":8045:8071   */\n      and\n        /* \"@openzeppelin/contracts/token/ERC20/ERC20.sol\":8054:8058   */\n      dup5\n      sub(shl(0xa0, 0x01), 0x01)\n        /* \"@openzeppelin/contracts/token/ERC20/ERC20.sol\":8045:8071   */\n      and\n      0xddf252ad1be2c89b69c2b068fc378daa952ba7f163c4a11628f55a4df523b3ef\n        /* \"@openzeppelin/contracts/token/ERC20/ERC20.sol\":8064:8070   */\n      dup5\n        /* \"@openzeppelin/contracts/token/ERC20/ERC20.sol\":8045:8071   */\n      mload(0x40)\n      tag_217\n      swap2\n        /* \"#utility.yul\":1414:1439   */\n      dup2\n      mstore\n        /* \"#utility.yul\":1402:1404   */\n      0x20\n        /* \"#utility.yul\":1387:1405   */\n      add\n      swap1\n        /* \"#utility.yul\":1268:1445   */\n      jump\n        /* \"@openzeppelin/contracts/token/ERC20/ERC20.sol\":8045:8071   */\n    tag_217:\n      mload(0x40)\n      dup1\n      swap2\n      sub\n      swap1\n      log3\n        /* \"@openzeppelin/contracts/token/ERC20/ERC20.sol\":8082:8119   */\n      tag_203\n        /* \"@openzeppelin/contracts/token/ERC20/ERC20.sol\":11786:11907   */\n      jump\n        /* \"@openzeppelin/contracts/access/Ownable.sol\":1359:1489   */\n    tag_133:\n        /* \"@openzeppelin/contracts/access/Ownable.sol\":1273:1279   */\n      sload(0x05)\n      sub(shl(0xa0, 0x01), 0x01)\n      0x0100\n      swap1\n      swap2\n      div\n      and\n        /* \"@openzeppelin/contracts/utils/Context.sol\":719:729   */\n      caller\n        /* \"@openzeppelin/contracts/access/Ownable.sol\":1422:1445   */\n      eq\n        /* \"@openzeppelin/contracts/access/Ownable.sol\":1414:1482   */\n      tag_135\n      jumpi\n      mload(0x40)\n      shl(0xe5, 0x461bcd)\n      dup2\n      mstore\n        /* \"#utility.yul\":6892:6894   */\n      0x20\n        /* \"@openzeppelin/contracts/access/Ownable.sol\":1414:1482   */\n      0x04\n      dup3\n      add\n        /* \"#utility.yul\":6874:6895   */\n      dup2\n      swap1\n      mstore\n        /* \"#utility.yul\":6911:6929   */\n      0x24\n      dup3\n      add\n        /* \"#utility.yul\":6904:6934   */\n      mstore\n        /* \"#utility.yul\":6970:7004   */\n      0x4f776e61626c653a2063616c6c6572206973206e6f7420746865206f776e6572\n        /* \"#utility.yul\":6950:6968   */\n      0x44\n      dup3\n      add\n        /* \"#utility.yul\":6943:7005   */\n      mstore\n        /* \"#utility.yul\":7022:7040   */\n      0x64\n      add\n        /* \"@openzeppelin/contracts/access/Ownable.sol\":1414:1482   */\n      tag_173\n        /* \"#utility.yul\":6690:7046   */\n      jump\n        /* \"@openzeppelin/contracts/security/Pausable.sol\":2433:2550   */\n    tag_136:\n        /* \"@openzeppelin/contracts/security/Pausable.sol\":1486:1502   */\n      tag_227\n        /* \"@openzeppelin/contracts/security/Pausable.sol\":1486:1500   */\n      tag_228\n        /* \"@openzeppelin/contracts/security/Pausable.sol\":1486:1502   */\n      jump\t// in\n    tag_227:\n        /* \"@openzeppelin/contracts/security/Pausable.sol\":2491:2498   */\n      0x05\n        /* \"@openzeppelin/contracts/security/Pausable.sol\":2491:2506   */\n      dup1\n      sload\n      not(0xff)\n      and\n      swap1\n      sstore\n        /* \"@openzeppelin/contracts/security/Pausable.sol\":2521:2543   */\n      0x5db9ee0a495bf2e6ff9c91a7834c1ba4fdd244a5e8aa4e537bd38aeae4b073aa\n        /* \"@openzeppelin/contracts/utils/Context.sol\":719:729   */\n      caller\n        /* \"@openzeppelin/contracts/security/Pausable.sol\":2530:2542   */\n    tag_230:\n        /* \"@openzeppelin/contracts/security/Pausable.sol\":2521:2543   */\n      mload(0x40)\n      sub(shl(0xa0, 0x01), 0x01)\n        /* \"#utility.yul\":2512:2567   */\n      swap1\n      swap2\n      and\n        /* \"#utility.yul\":2494:2568   */\n      dup2\n      mstore\n        /* \"#utility.yul\":2482:2484   */\n      0x20\n        /* \"#utility.yul\":2467:2485   */\n      add\n        /* \"@openzeppelin/contracts/security/Pausable.sol\":2521:2543   */\n      mload(0x40)\n      dup1\n      swap2\n      sub\n      swap1\n      log1\n        /* \"@openzeppelin/contracts/security/Pausable.sol\":2433:2550   */\n      jump\t// out\n        /* \"@openzeppelin/contracts/token/ERC20/ERC20.sol\":8402:8791   */\n    tag_141:\n      sub(shl(0xa0, 0x01), 0x01)\n        /* \"@openzeppelin/contracts/token/ERC20/ERC20.sol\":8485:8506   */\n      dup3\n      and\n        /* \"@openzeppelin/contracts/token/ERC20/ERC20.sol\":8477:8542   */\n      tag_233\n      jumpi\n      mload(0x40)\n      shl(0xe5, 0x461bcd)\n      dup2\n      mstore\n        /* \"#utility.yul\":7253:7255   */\n      0x20\n        /* \"@openzeppelin/contracts/token/ERC20/ERC20.sol\":8477:8542   */\n      0x04\n      dup3\n      add\n        /* \"#utility.yul\":7235:7256   */\n      mstore\n        /* \"#utility.yul\":7292:7294   */\n      0x1f\n        /* \"#utility.yul\":7272:7290   */\n      0x24\n      dup3\n      add\n        /* \"#utility.yul\":7265:7295   */\n      mstore\n        /* \"#utility.yul\":7331:7364   */\n      0x45524332303a206d696e7420746f20746865207a65726f206164647265737300\n        /* \"#utility.yul\":7311:7329   */\n      0x44\n      dup3\n      add\n        /* \"#utility.yul\":7304:7365   */\n      mstore\n        /* \"#utility.yul\":7382:7400   */\n      0x64\n      add\n        /* \"@openzeppelin/contracts/token/ERC20/ERC20.sol\":8477:8542   */\n      tag_173\n        /* \"#utility.yul\":7051:7406   */\n      jump\n        /* \"@openzeppelin/contracts/token/ERC20/ERC20.sol\":8477:8542   */\n    tag_233:\n        /* \"@openzeppelin/contracts/token/ERC20/ERC20.sol\":8553:8602   */\n      tag_236\n        /* \"@openzeppelin/contracts/token/ERC20/ERC20.sol\":8582:8583   */\n      0x00\n        /* \"@openzeppelin/contracts/token/ERC20/ERC20.sol\":8586:8593   */\n      dup4\n        /* \"@openzeppelin/contracts/token/ERC20/ERC20.sol\":8595:8601   */\n      dup4\n        /* \"@openzeppelin/contracts/token/ERC20/ERC20.sol\":8553:8573   */\n      tag_212\n        /* \"@openzeppelin/contracts/token/ERC20/ERC20.sol\":8553:8602   */\n      jump\t// in\n    tag_236:\n        /* \"@openzeppelin/contracts/token/ERC20/ERC20.sol\":8629:8635   */\n      dup1\n        /* \"@openzeppelin/contracts/token/ERC20/ERC20.sol\":8613:8625   */\n      0x02\n      0x00\n        /* \"@openzeppelin/contracts/token/ERC20/ERC20.sol\":8613:8635   */\n      dup3\n      dup3\n      sload\n      tag_237\n      swap2\n      swap1\n      tag_130\n      jump\t// in\n    tag_237:\n      swap1\n      swap2\n      sstore\n      pop\n      pop\n      sub(shl(0xa0, 0x01), 0x01)\n        /* \"@openzeppelin/contracts/token/ERC20/ERC20.sol\":8645:8663   */\n      dup3\n      and\n        /* \"@openzeppelin/contracts/token/ERC20/ERC20.sol\":8645:8654   */\n      0x00\n        /* \"@openzeppelin/contracts/token/ERC20/ERC20.sol\":8645:8663   */\n      swap1\n      dup2\n      mstore\n      0x20\n      dup2\n      swap1\n      mstore\n      0x40\n      dup2\n      keccak256\n        /* \"@openzeppelin/contracts/token/ERC20/ERC20.sol\":8645:8673   */\n      dup1\n      sload\n        /* \"@openzeppelin/contracts/token/ERC20/ERC20.sol\":8667:8673   */\n      dup4\n      swap3\n        /* \"@openzeppelin/contracts/token/ERC20/ERC20.sol\":8645:8654   */\n      swap1\n        /* \"@openzeppelin/contracts/token/ERC20/ERC20.sol\":8645:8673   */\n      tag_238\n      swap1\n        /* \"@openzeppelin/contracts/token/ERC20/ERC20.sol\":8667:8673   */\n      dup5\n      swap1\n        /* \"@openzeppelin/contracts/token/ERC20/ERC20.sol\":8645:8673   */\n      tag_130\n      jump\t// in\n    tag_238:\n      swap1\n      swap2\n      sstore\n      pop\n      pop\n        /* \"@openzeppelin/contracts/token/ERC20/ERC20.sol\":8688:8725   */\n      mload(0x40)\n        /* \"#utility.yul\":1414:1439   */\n      dup2\n      dup2\n      mstore\n      sub(shl(0xa0, 0x01), 0x01)\n        /* \"@openzeppelin/contracts/token/ERC20/ERC20.sol\":8688:8725   */\n      dup4\n      and\n      swap1\n        /* \"@openzeppelin/contracts/token/ERC20/ERC20.sol\":8705:8706   */\n      0x00\n      swap1\n        /* \"@openzeppelin/contracts/token/ERC20/ERC20.sol\":8688:8725   */\n      0xddf252ad1be2c89b69c2b068fc378daa952ba7f163c4a11628f55a4df523b3ef\n      swap1\n        /* \"#utility.yul\":1402:1404   */\n      0x20\n        /* \"#utility.yul\":1387:1405   */\n      add\n        /* \"@openzeppelin/contracts/token/ERC20/ERC20.sol\":8688:8725   */\n      mload(0x40)\n      dup1\n      swap2\n      sub\n      swap1\n      log3\n        /* \"AWEtoken.sol\":632:727  function mint(address to, uint256 amount) public onlyOwner {... */\n      pop\n      pop\n      jump\t// out\n        /* \"@openzeppelin/contracts/token/ERC20/ERC20.sol\":9111:9687   */\n    tag_145:\n      sub(shl(0xa0, 0x01), 0x01)\n        /* \"@openzeppelin/contracts/token/ERC20/ERC20.sol\":9194:9215   */\n      dup3\n      and\n        /* \"@openzeppelin/contracts/token/ERC20/ERC20.sol\":9186:9253   */\n      tag_242\n      jumpi\n      mload(0x40)\n      shl(0xe5, 0x461bcd)\n      dup2\n      mstore\n        /* \"#utility.yul\":7613:7615   */\n      0x20\n        /* \"@openzeppelin/contracts/token/ERC20/ERC20.sol\":9186:9253   */\n      0x04\n      dup3\n      add\n        /* \"#utility.yul\":7595:7616   */\n      mstore\n        /* \"#utility.yul\":7652:7654   */\n      0x21\n        /* \"#utility.yul\":7632:7650   */\n      0x24\n      dup3\n      add\n        /* \"#utility.yul\":7625:7655   */\n      mstore\n        /* \"#utility.yul\":7691:7725   */\n      0x45524332303a206275726e2066726f6d20746865207a65726f20616464726573\n        /* \"#utility.yul\":7671:7689   */\n      0x44\n      dup3\n      add\n        /* \"#utility.yul\":7664:7726   */\n      mstore\n      shl(0xf8, 0x73)\n        /* \"#utility.yul\":7742:7760   */\n      0x64\n      dup3\n      add\n        /* \"#utility.yul\":7735:7766   */\n      mstore\n        /* \"#utility.yul\":7783:7802   */\n      0x84\n      add\n        /* \"@openzeppelin/contracts/token/ERC20/ERC20.sol\":9186:9253   */\n      tag_173\n        /* \"#utility.yul\":7411:7808   */\n      jump\n        /* \"@openzeppelin/contracts/token/ERC20/ERC20.sol\":9186:9253   */\n    tag_242:\n        /* \"@openzeppelin/contracts/token/ERC20/ERC20.sol\":9264:9313   */\n      tag_245\n        /* \"@openzeppelin/contracts/token/ERC20/ERC20.sol\":9285:9292   */\n      dup3\n        /* \"@openzeppelin/contracts/token/ERC20/ERC20.sol\":9302:9303   */\n      0x00\n        /* \"@openzeppelin/contracts/token/ERC20/ERC20.sol\":9306:9312   */\n      dup4\n        /* \"@openzeppelin/contracts/token/ERC20/ERC20.sol\":9264:9284   */\n      tag_212\n        /* \"@openzeppelin/contracts/token/ERC20/ERC20.sol\":9264:9313   */\n      jump\t// in\n    tag_245:\n      sub(shl(0xa0, 0x01), 0x01)\n        /* \"@openzeppelin/contracts/token/ERC20/ERC20.sol\":9349:9367   */\n      dup3\n      and\n        /* \"@openzeppelin/contracts/token/ERC20/ERC20.sol\":9324:9346   */\n      0x00\n        /* \"@openzeppelin/contracts/token/ERC20/ERC20.sol\":9349:9367   */\n      swap1\n      dup2\n      mstore\n      0x20\n      dup2\n      swap1\n      mstore\n      0x40\n      swap1\n      keccak256\n      sload\n        /* \"@openzeppelin/contracts/token/ERC20/ERC20.sol\":9385:9409   */\n      dup2\n      dup2\n      lt\n      iszero\n        /* \"@openzeppelin/contracts/token/ERC20/ERC20.sol\":9377:9448   */\n      tag_246\n      jumpi\n      mload(0x40)\n      shl(0xe5, 0x461bcd)\n      dup2\n      mstore\n        /* \"#utility.yul\":8015:8017   */\n      0x20\n        /* \"@openzeppelin/contracts/token/ERC20/ERC20.sol\":9377:9448   */\n      0x04\n      dup3\n      add\n        /* \"#utility.yul\":7997:8018   */\n      mstore\n        /* \"#utility.yul\":8054:8056   */\n      0x22\n        /* \"#utility.yul\":8034:8052   */\n      0x24\n      dup3\n      add\n        /* \"#utility.yul\":8027:8057   */\n      mstore\n        /* \"#utility.yul\":8093:8127   */\n      0x45524332303a206275726e20616d6f756e7420657863656564732062616c616e\n        /* \"#utility.yul\":8073:8091   */\n      0x44\n      dup3\n      add\n        /* \"#utility.yul\":8066:8128   */\n      mstore\n      shl(0xf0, 0x6365)\n        /* \"#utility.yul\":8144:8162   */\n      0x64\n      dup3\n      add\n        /* \"#utility.yul\":8137:8169   */\n      mstore\n        /* \"#utility.yul\":8186:8205   */\n      0x84\n      add\n        /* \"@openzeppelin/contracts/token/ERC20/ERC20.sol\":9377:9448   */\n      tag_173\n        /* \"#utility.yul\":7813:8211   */\n      jump\n        /* \"@openzeppelin/contracts/token/ERC20/ERC20.sol\":9377:9448   */\n    tag_246:\n      sub(shl(0xa0, 0x01), 0x01)\n        /* \"@openzeppelin/contracts/token/ERC20/ERC20.sol\":9482:9500   */\n      dup4\n      and\n        /* \"@openzeppelin/contracts/token/ERC20/ERC20.sol\":9482:9491   */\n      0x00\n        /* \"@openzeppelin/contracts/token/ERC20/ERC20.sol\":9482:9500   */\n      swap1\n      dup2\n      mstore\n      0x20\n      dup2\n      swap1\n      mstore\n      0x40\n      dup2\n      keccak256\n        /* \"@openzeppelin/contracts/token/ERC20/ERC20.sol\":9503:9526   */\n      dup4\n      dup4\n      sub\n        /* \"@openzeppelin/contracts/token/ERC20/ERC20.sol\":9482:9526   */\n      swap1\n      sstore\n        /* \"@openzeppelin/contracts/token/ERC20/ERC20.sol\":9546:9558   */\n      0x02\n        /* \"@openzeppelin/contracts/token/ERC20/ERC20.sol\":9546:9568   */\n      dup1\n      sload\n        /* \"@openzeppelin/contracts/token/ERC20/ERC20.sol\":9520:9526   */\n      dup5\n      swap3\n        /* \"@openzeppelin/contracts/token/ERC20/ERC20.sol\":9482:9491   */\n      swap1\n        /* \"@openzeppelin/contracts/token/ERC20/ERC20.sol\":9546:9568   */\n      tag_249\n      swap1\n        /* \"@openzeppelin/contracts/token/ERC20/ERC20.sol\":9520:9526   */\n      dup5\n      swap1\n        /* \"@openzeppelin/contracts/token/ERC20/ERC20.sol\":9546:9568   */\n      tag_250\n      jump\t// in\n    tag_249:\n      swap1\n      swap2\n      sstore\n      pop\n      pop\n        /* \"@openzeppelin/contracts/token/ERC20/ERC20.sol\":9584:9621   */\n      mload(0x40)\n        /* \"#utility.yul\":1414:1439   */\n      dup3\n      dup2\n      mstore\n        /* \"@openzeppelin/contracts/token/ERC20/ERC20.sol\":9610:9611   */\n      0x00\n      swap1\n      sub(shl(0xa0, 0x01), 0x01)\n        /* \"@openzeppelin/contracts/token/ERC20/ERC20.sol\":9584:9621   */\n      dup6\n      and\n      swap1\n      0xddf252ad1be2c89b69c2b068fc378daa952ba7f163c4a11628f55a4df523b3ef\n      swap1\n        /* \"#utility.yul\":1402:1404   */\n      0x20\n        /* \"#utility.yul\":1387:1405   */\n      add\n        /* \"@openzeppelin/contracts/token/ERC20/ERC20.sol\":9584:9621   */\n      mload(0x40)\n      dup1\n      swap2\n      sub\n      swap1\n      log3\n        /* \"@openzeppelin/contracts/token/ERC20/ERC20.sol\":11786:11907   */\n      pop\n      pop\n      pop\n      jump\t// out\n        /* \"@openzeppelin/contracts/access/Ownable.sol\":2433:2620   */\n    tag_152:\n        /* \"@openzeppelin/contracts/access/Ownable.sol\":2525:2531   */\n      0x05\n      dup1\n      sload\n      sub(shl(0xa0, 0x01), 0x01)\n        /* \"@openzeppelin/contracts/access/Ownable.sol\":2541:2558   */\n      dup4\n      dup2\n      and\n        /* \"@openzeppelin/contracts/access/Ownable.sol\":2525:2531   */\n      0x0100\n        /* \"@openzeppelin/contracts/access/Ownable.sol\":2541:2558   */\n      dup2\n      dup2\n      mul\n      0xffffffffffffffffffffff0000000000000000000000000000000000000000ff\n      dup6\n      and\n      or\n      swap1\n      swap5\n      sstore\n        /* \"@openzeppelin/contracts/access/Ownable.sol\":2573:2613   */\n      mload(0x40)\n        /* \"@openzeppelin/contracts/access/Ownable.sol\":2525:2531   */\n      swap4\n      swap1\n      swap3\n      div\n      and\n      swap2\n      dup3\n      swap1\n        /* \"@openzeppelin/contracts/access/Ownable.sol\":2573:2613   */\n      0x8be0079c531659141344cd1fd0a4f28419497f9722a3daafe3b4186f6b6457e0\n      swap1\n        /* \"@openzeppelin/contracts/access/Ownable.sol\":2506:2522   */\n      0x00\n      swap1\n        /* \"@openzeppelin/contracts/access/Ownable.sol\":2573:2613   */\n      log3\n        /* \"@openzeppelin/contracts/access/Ownable.sol\":2496:2620   */\n      pop\n        /* \"@openzeppelin/contracts/access/Ownable.sol\":2433:2620   */\n      pop\n      jump\t// out\n        /* \"@openzeppelin/contracts/security/Pausable.sol\":2186:2301   */\n    tag_161:\n        /* \"@openzeppelin/contracts/security/Pausable.sol\":1239:1258   */\n      tag_255\n        /* \"@openzeppelin/contracts/security/Pausable.sol\":1239:1256   */\n      tag_256\n        /* \"@openzeppelin/contracts/security/Pausable.sol\":1239:1258   */\n      jump\t// in\n    tag_255:\n        /* \"@openzeppelin/contracts/security/Pausable.sol\":2245:2252   */\n      0x05\n        /* \"@openzeppelin/contracts/security/Pausable.sol\":2245:2259   */\n      dup1\n      sload\n      not(0xff)\n      and\n        /* \"@openzeppelin/contracts/security/Pausable.sol\":2255:2259   */\n      0x01\n        /* \"@openzeppelin/contracts/security/Pausable.sol\":2245:2259   */\n      or\n      swap1\n      sstore\n        /* \"@openzeppelin/contracts/security/Pausable.sol\":2274:2294   */\n      0x62e78cea01bee320cd4e420270b5ea74000d11b0c9f74754ebdbfc544b05a258\n        /* \"@openzeppelin/contracts/security/Pausable.sol\":2281:2293   */\n      tag_230\n        /* \"@openzeppelin/contracts/utils/Context.sol\":719:729   */\n      caller\n      swap1\n        /* \"@openzeppelin/contracts/utils/Context.sol\":640:736   */\n      jump\n        /* \"AWEtoken.sol\":735:934  function _beforeTokenTransfer(address from, address to, uint256 amount)... */\n    tag_212:\n        /* \"@openzeppelin/contracts/security/Pausable.sol\":1239:1258   */\n      tag_104\n        /* \"@openzeppelin/contracts/security/Pausable.sol\":1239:1256   */\n      tag_256\n        /* \"@openzeppelin/contracts/security/Pausable.sol\":1239:1258   */\n      jump\t// in\n        /* \"@openzeppelin/contracts/security/Pausable.sol\":1945:2051   */\n    tag_228:\n        /* \"@openzeppelin/contracts/security/Pausable.sol\":1685:1692   */\n      and(0xff, sload(0x05))\n        /* \"@openzeppelin/contracts/security/Pausable.sol\":2003:2044   */\n      tag_135\n      jumpi\n      mload(0x40)\n      shl(0xe5, 0x461bcd)\n      dup2\n      mstore\n        /* \"#utility.yul\":8548:8550   */\n      0x20\n        /* \"@openzeppelin/contracts/security/Pausable.sol\":2003:2044   */\n      0x04\n      dup3\n      add\n        /* \"#utility.yul\":8530:8551   */\n      mstore\n        /* \"#utility.yul\":8587:8589   */\n      0x14\n        /* \"#utility.yul\":8567:8585   */\n      0x24\n      dup3\n      add\n        /* \"#utility.yul\":8560:8590   */\n      mstore\n        /* \"#utility.yul\":8626:8648   */\n      0x5061757361626c653a206e6f7420706175736564000000000000000000000000\n        /* \"#utility.yul\":8606:8624   */\n      0x44\n      dup3\n      add\n        /* \"#utility.yul\":8599:8649   */\n      mstore\n        /* \"#utility.yul\":8666:8684   */\n      0x64\n      add\n        /* \"@openzeppelin/contracts/security/Pausable.sol\":2003:2044   */\n      tag_173\n        /* \"#utility.yul\":8346:8690   */\n      jump\n        /* \"@openzeppelin/contracts/security/Pausable.sol\":1767:1873   */\n    tag_256:\n        /* \"@openzeppelin/contracts/security/Pausable.sol\":1685:1692   */\n      and(0xff, sload(0x05))\n        /* \"@openzeppelin/contracts/security/Pausable.sol\":1836:1845   */\n      iszero\n        /* \"@openzeppelin/contracts/security/Pausable.sol\":1828:1866   */\n      tag_135\n      jumpi\n      mload(0x40)\n      shl(0xe5, 0x461bcd)\n      dup2\n      mstore\n        /* \"#utility.yul\":8897:8899   */\n      0x20\n        /* \"@openzeppelin/contracts/security/Pausable.sol\":1828:1866   */\n      0x04\n      dup3\n      add\n        /* \"#utility.yul\":8879:8900   */\n      mstore\n        /* \"#utility.yul\":8936:8938   */\n      0x10\n        /* \"#utility.yul\":8916:8934   */\n      0x24\n      dup3\n      add\n        /* \"#utility.yul\":8909:8939   */\n      mstore\n        /* \"#utility.yul\":8975:8993   */\n      0x5061757361626c653a2070617573656400000000000000000000000000000000\n        /* \"#utility.yul\":8955:8973   */\n      0x44\n      dup3\n      add\n        /* \"#utility.yul\":8948:8994   */\n      mstore\n        /* \"#utility.yul\":9011:9029   */\n      0x64\n      add\n        /* \"@openzeppelin/contracts/security/Pausable.sol\":1828:1866   */\n      tag_173\n        /* \"#utility.yul\":8695:9035   */\n      jump\n        /* \"#utility.yul\":14:611   */\n    tag_33:\n        /* \"#utility.yul\":126:130   */\n      0x00\n        /* \"#utility.yul\":155:157   */\n      0x20\n        /* \"#utility.yul\":184:186   */\n      dup1\n        /* \"#utility.yul\":173:182   */\n      dup4\n        /* \"#utility.yul\":166:187   */\n      mstore\n        /* \"#utility.yul\":216:222   */\n      dup4\n        /* \"#utility.yul\":210:223   */\n      mload\n        /* \"#utility.yul\":259:265   */\n      dup1\n        /* \"#utility.yul\":254:256   */\n      dup3\n        /* \"#utility.yul\":243:252   */\n      dup6\n        /* \"#utility.yul\":239:257   */\n      add\n        /* \"#utility.yul\":232:266   */\n      mstore\n        /* \"#utility.yul\":284:285   */\n      0x00\n        /* \"#utility.yul\":294:434   */\n    tag_279:\n        /* \"#utility.yul\":308:314   */\n      dup2\n        /* \"#utility.yul\":305:306   */\n      dup2\n        /* \"#utility.yul\":302:315   */\n      lt\n        /* \"#utility.yul\":294:434   */\n      iszero\n      tag_281\n      jumpi\n        /* \"#utility.yul\":403:417   */\n      dup6\n      dup2\n      add\n        /* \"#utility.yul\":399:422   */\n      dup4\n      add\n        /* \"#utility.yul\":393:423   */\n      mload\n        /* \"#utility.yul\":369:386   */\n      dup6\n      dup3\n      add\n        /* \"#utility.yul\":388:390   */\n      0x40\n        /* \"#utility.yul\":365:391   */\n      add\n        /* \"#utility.yul\":358:424   */\n      mstore\n        /* \"#utility.yul\":323:333   */\n      dup3\n      add\n        /* \"#utility.yul\":294:434   */\n      jump(tag_279)\n    tag_281:\n        /* \"#utility.yul\":452:458   */\n      dup2\n        /* \"#utility.yul\":449:450   */\n      dup2\n        /* \"#utility.yul\":446:459   */\n      gt\n        /* \"#utility.yul\":443:534   */\n      iszero\n      tag_282\n      jumpi\n        /* \"#utility.yul\":522:523   */\n      0x00\n        /* \"#utility.yul\":517:519   */\n      0x40\n        /* \"#utility.yul\":508:514   */\n      dup4\n        /* \"#utility.yul\":497:506   */\n      dup8\n        /* \"#utility.yul\":493:515   */\n      add\n        /* \"#utility.yul\":489:520   */\n      add\n        /* \"#utility.yul\":482:524   */\n      mstore\n        /* \"#utility.yul\":443:534   */\n    tag_282:\n      pop\n        /* \"#utility.yul\":595:597   */\n      0x1f\n        /* \"#utility.yul\":574:589   */\n      add\n      not(0x1f)\n        /* \"#utility.yul\":570:599   */\n      and\n        /* \"#utility.yul\":555:600   */\n      swap3\n      swap1\n      swap3\n      add\n        /* \"#utility.yul\":602:604   */\n      0x40\n        /* \"#utility.yul\":551:605   */\n      add\n      swap4\n        /* \"#utility.yul\":14:611   */\n      swap3\n      pop\n      pop\n      pop\n      jump\t// out\n        /* \"#utility.yul\":616:812   */\n    tag_275:\n        /* \"#utility.yul\":684:704   */\n      dup1\n      calldataload\n      sub(shl(0xa0, 0x01), 0x01)\n        /* \"#utility.yul\":733:787   */\n      dup2\n      and\n        /* \"#utility.yul\":723:788   */\n      dup2\n      eq\n        /* \"#utility.yul\":713:806   */\n      tag_284\n      jumpi\n        /* \"#utility.yul\":802:803   */\n      0x00\n        /* \"#utility.yul\":799:800   */\n      dup1\n        /* \"#utility.yul\":792:804   */\n      revert\n        /* \"#utility.yul\":713:806   */\n    tag_284:\n        /* \"#utility.yul\":616:812   */\n      swap2\n      swap1\n      pop\n      jump\t// out\n        /* \"#utility.yul\":817:1071   */\n    tag_36:\n        /* \"#utility.yul\":885:891   */\n      0x00\n        /* \"#utility.yul\":893:899   */\n      dup1\n        /* \"#utility.yul\":946:948   */\n      0x40\n        /* \"#utility.yul\":934:943   */\n      dup4\n        /* \"#utility.yul\":925:932   */\n      dup6\n        /* \"#utility.yul\":921:944   */\n      sub\n        /* \"#utility.yul\":917:949   */\n      slt\n        /* \"#utility.yul\":914:966   */\n      iszero\n      tag_286\n      jumpi\n        /* \"#utility.yul\":962:963   */\n      0x00\n        /* \"#utility.yul\":959:960   */\n      dup1\n        /* \"#utility.yul\":952:964   */\n      revert\n        /* \"#utility.yul\":914:966   */\n    tag_286:\n        /* \"#utility.yul\":985:1014   */\n      tag_287\n        /* \"#utility.yul\":1004:1013   */\n      dup4\n        /* \"#utility.yul\":985:1014   */\n      tag_275\n      jump\t// in\n    tag_287:\n        /* \"#utility.yul\":975:1014   */\n      swap5\n        /* \"#utility.yul\":1061:1063   */\n      0x20\n        /* \"#utility.yul\":1046:1064   */\n      swap4\n      swap1\n      swap4\n      add\n        /* \"#utility.yul\":1033:1065   */\n      calldataload\n      swap4\n      pop\n      pop\n      pop\n        /* \"#utility.yul\":817:1071   */\n      jump\t// out\n        /* \"#utility.yul\":1450:1778   */\n    tag_46:\n        /* \"#utility.yul\":1527:1533   */\n      0x00\n        /* \"#utility.yul\":1535:1541   */\n      dup1\n        /* \"#utility.yul\":1543:1549   */\n      0x00\n        /* \"#utility.yul\":1596:1598   */\n      0x60\n        /* \"#utility.yul\":1584:1593   */\n      dup5\n        /* \"#utility.yul\":1575:1582   */\n      dup7\n        /* \"#utility.yul\":1571:1594   */\n      sub\n        /* \"#utility.yul\":1567:1599   */\n      slt\n        /* \"#utility.yul\":1564:1616   */\n      iszero\n      tag_291\n      jumpi\n        /* \"#utility.yul\":1612:1613   */\n      0x00\n        /* \"#utility.yul\":1609:1610   */\n      dup1\n        /* \"#utility.yul\":1602:1614   */\n      revert\n        /* \"#utility.yul\":1564:1616   */\n    tag_291:\n        /* \"#utility.yul\":1635:1664   */\n      tag_292\n        /* \"#utility.yul\":1654:1663   */\n      dup5\n        /* \"#utility.yul\":1635:1664   */\n      tag_275\n      jump\t// in\n    tag_292:\n        /* \"#utility.yul\":1625:1664   */\n      swap3\n      pop\n        /* \"#utility.yul\":1683:1721   */\n      tag_293\n        /* \"#utility.yul\":1717:1719   */\n      0x20\n        /* \"#utility.yul\":1706:1715   */\n      dup6\n        /* \"#utility.yul\":1702:1720   */\n      add\n        /* \"#utility.yul\":1683:1721   */\n      tag_275\n      jump\t// in\n    tag_293:\n        /* \"#utility.yul\":1673:1721   */\n      swap2\n      pop\n        /* \"#utility.yul\":1768:1770   */\n      0x40\n        /* \"#utility.yul\":1757:1766   */\n      dup5\n        /* \"#utility.yul\":1753:1771   */\n      add\n        /* \"#utility.yul\":1740:1772   */\n      calldataload\n        /* \"#utility.yul\":1730:1772   */\n      swap1\n      pop\n        /* \"#utility.yul\":1450:1778   */\n      swap3\n      pop\n      swap3\n      pop\n      swap3\n      jump\t// out\n        /* \"#utility.yul\":1972:2152   */\n    tag_64:\n        /* \"#utility.yul\":2031:2037   */\n      0x00\n        /* \"#utility.yul\":2084:2086   */\n      0x20\n        /* \"#utility.yul\":2072:2081   */\n      dup3\n        /* \"#utility.yul\":2063:2070   */\n      dup5\n        /* \"#utility.yul\":2059:2082   */\n      sub\n        /* \"#utility.yul\":2055:2087   */\n      slt\n        /* \"#utility.yul\":2052:2104   */\n      iszero\n      tag_296\n      jumpi\n        /* \"#utility.yul\":2100:2101   */\n      0x00\n        /* \"#utility.yul\":2097:2098   */\n      dup1\n        /* \"#utility.yul\":2090:2102   */\n      revert\n        /* \"#utility.yul\":2052:2104   */\n    tag_296:\n      pop\n        /* \"#utility.yul\":2123:2146   */\n      calldataload\n      swap2\n        /* \"#utility.yul\":1972:2152   */\n      swap1\n      pop\n      jump\t// out\n        /* \"#utility.yul\":2157:2343   */\n    tag_71:\n        /* \"#utility.yul\":2216:2222   */\n      0x00\n        /* \"#utility.yul\":2269:2271   */\n      0x20\n        /* \"#utility.yul\":2257:2266   */\n      dup3\n        /* \"#utility.yul\":2248:2255   */\n      dup5\n        /* \"#utility.yul\":2244:2267   */\n      sub\n        /* \"#utility.yul\":2240:2272   */\n      slt\n        /* \"#utility.yul\":2237:2289   */\n      iszero\n      tag_298\n      jumpi\n        /* \"#utility.yul\":2285:2286   */\n      0x00\n        /* \"#utility.yul\":2282:2283   */\n      dup1\n        /* \"#utility.yul\":2275:2287   */\n      revert\n        /* \"#utility.yul\":2237:2289   */\n    tag_298:\n        /* \"#utility.yul\":2308:2337   */\n      tag_299\n        /* \"#utility.yul\":2327:2336   */\n      dup3\n        /* \"#utility.yul\":2308:2337   */\n      tag_275\n      jump\t// in\n    tag_299:\n        /* \"#utility.yul\":2298:2337   */\n      swap4\n        /* \"#utility.yul\":2157:2343   */\n      swap3\n      pop\n      pop\n      pop\n      jump\t// out\n        /* \"#utility.yul\":2579:2839   */\n    tag_98:\n        /* \"#utility.yul\":2647:2653   */\n      0x00\n        /* \"#utility.yul\":2655:2661   */\n      dup1\n        /* \"#utility.yul\":2708:2710   */\n      0x40\n        /* \"#utility.yul\":2696:2705   */\n      dup4\n        /* \"#utility.yul\":2687:2694   */\n      dup6\n        /* \"#utility.yul\":2683:2706   */\n      sub\n        /* \"#utility.yul\":2679:2711   */\n      slt\n        /* \"#utility.yul\":2676:2728   */\n      iszero\n      tag_302\n      jumpi\n        /* \"#utility.yul\":2724:2725   */\n      0x00\n        /* \"#utility.yul\":2721:2722   */\n      dup1\n        /* \"#utility.yul\":2714:2726   */\n      revert\n        /* \"#utility.yul\":2676:2728   */\n    tag_302:\n        /* \"#utility.yul\":2747:2776   */\n      tag_303\n        /* \"#utility.yul\":2766:2775   */\n      dup4\n        /* \"#utility.yul\":2747:2776   */\n      tag_275\n      jump\t// in\n    tag_303:\n        /* \"#utility.yul\":2737:2776   */\n      swap2\n      pop\n        /* \"#utility.yul\":2795:2833   */\n      tag_304\n        /* \"#utility.yul\":2829:2831   */\n      0x20\n        /* \"#utility.yul\":2818:2827   */\n      dup5\n        /* \"#utility.yul\":2814:2832   */\n      add\n        /* \"#utility.yul\":2795:2833   */\n      tag_275\n      jump\t// in\n    tag_304:\n        /* \"#utility.yul\":2785:2833   */\n      swap1\n      pop\n        /* \"#utility.yul\":2579:2839   */\n      swap3\n      pop\n      swap3\n      swap1\n      pop\n      jump\t// out\n        /* \"#utility.yul\":2844:3224   */\n    tag_107:\n        /* \"#utility.yul\":2923:2924   */\n      0x01\n        /* \"#utility.yul\":2919:2931   */\n      dup2\n      dup2\n      shr\n      swap1\n        /* \"#utility.yul\":2966:2978   */\n      dup3\n      and\n      dup1\n        /* \"#utility.yul\":2987:3048   */\n      tag_306\n      jumpi\n        /* \"#utility.yul\":3041:3045   */\n      0x7f\n        /* \"#utility.yul\":3033:3039   */\n      dup3\n        /* \"#utility.yul\":3029:3046   */\n      and\n        /* \"#utility.yul\":3019:3046   */\n      swap2\n      pop\n        /* \"#utility.yul\":2987:3048   */\n    tag_306:\n        /* \"#utility.yul\":3094:3096   */\n      0x20\n        /* \"#utility.yul\":3086:3092   */\n      dup3\n        /* \"#utility.yul\":3083:3097   */\n      lt\n        /* \"#utility.yul\":3063:3081   */\n      dup2\n        /* \"#utility.yul\":3060:3098   */\n      sub\n        /* \"#utility.yul\":3057:3218   */\n      tag_307\n      jumpi\n        /* \"#utility.yul\":3140:3150   */\n      0x4e487b71\n        /* \"#utility.yul\":3135:3138   */\n      0xe0\n        /* \"#utility.yul\":3131:3151   */\n      shl\n        /* \"#utility.yul\":3128:3129   */\n      0x00\n        /* \"#utility.yul\":3121:3152   */\n      mstore\n        /* \"#utility.yul\":3175:3179   */\n      0x22\n        /* \"#utility.yul\":3172:3173   */\n      0x04\n        /* \"#utility.yul\":3165:3180   */\n      mstore\n        /* \"#utility.yul\":3203:3207   */\n      0x24\n        /* \"#utility.yul\":3200:3201   */\n      0x00\n        /* \"#utility.yul\":3193:3208   */\n      revert\n        /* \"#utility.yul\":3057:3218   */\n    tag_307:\n      pop\n        /* \"#utility.yul\":2844:3224   */\n      swap2\n      swap1\n      pop\n      jump\t// out\n        /* \"#utility.yul\":3229:3356   */\n    tag_276:\n        /* \"#utility.yul\":3290:3300   */\n      0x4e487b71\n        /* \"#utility.yul\":3285:3288   */\n      0xe0\n        /* \"#utility.yul\":3281:3301   */\n      shl\n        /* \"#utility.yul\":3278:3279   */\n      0x00\n        /* \"#utility.yul\":3271:3302   */\n      mstore\n        /* \"#utility.yul\":3321:3325   */\n      0x11\n        /* \"#utility.yul\":3318:3319   */\n      0x04\n        /* \"#utility.yul\":3311:3326   */\n      mstore\n        /* \"#utility.yul\":3345:3349   */\n      0x24\n        /* \"#utility.yul\":3342:3343   */\n      0x00\n        /* \"#utility.yul\":3335:3350   */\n      revert\n        /* \"#utility.yul\":3361:3489   */\n    tag_130:\n        /* \"#utility.yul\":3401:3404   */\n      0x00\n        /* \"#utility.yul\":3432:3433   */\n      dup3\n        /* \"#utility.yul\":3428:3434   */\n      not\n        /* \"#utility.yul\":3425:3426   */\n      dup3\n        /* \"#utility.yul\":3422:3435   */\n      gt\n        /* \"#utility.yul\":3419:3458   */\n      iszero\n      tag_311\n      jumpi\n        /* \"#utility.yul\":3438:3456   */\n      tag_311\n      tag_276\n      jump\t// in\n    tag_311:\n      pop\n        /* \"#utility.yul\":3474:3483   */\n      add\n      swap1\n        /* \"#utility.yul\":3361:3489   */\n      jump\t// out\n        /* \"#utility.yul\":8216:8341   */\n    tag_250:\n        /* \"#utility.yul\":8256:8260   */\n      0x00\n        /* \"#utility.yul\":8284:8285   */\n      dup3\n        /* \"#utility.yul\":8281:8282   */\n      dup3\n        /* \"#utility.yul\":8278:8286   */\n      lt\n        /* \"#utility.yul\":8275:8309   */\n      iszero\n      tag_326\n      jumpi\n        /* \"#utility.yul\":8289:8307   */\n      tag_326\n      tag_276\n      jump\t// in\n    tag_326:\n      pop\n        /* \"#utility.yul\":8326:8335   */\n      sub\n      swap1\n        /* \"#utility.yul\":8216:8341   */\n      jump\t// out\n\n    auxdata: 0xa2646970667358221220fdd093225372cb51bc00018c8a26a3a9d0dd81e7e10ea724db092accf1315d4d64736f6c634300080d0033\n}\n",
    "bytecode": {
      "linkReferences": {},
      "object": "60806040523480156200001157600080fd5b506040518060400160405280600981526020016820aba2902a37b5b2b760b91b8152506040518060400160405280600381526020016241574560e81b81525081600390805190602001906200006892919062000287565b5080516200007e90600490602084019062000287565b50506005805460ff19169055506200009633620000c5565b620000bf33620000a860128062000442565b620000b9906402540be4006200045a565b6200011f565b620004d3565b600580546001600160a01b03838116610100818102610100600160a81b031985161790945560405193909204169182907f8be0079c531659141344cd1fd0a4f28419497f9722a3daafe3b4186f6b6457e090600090a35050565b6001600160a01b0382166200017b5760405162461bcd60e51b815260206004820152601f60248201527f45524332303a206d696e7420746f20746865207a65726f20616464726573730060448201526064015b60405180910390fd5b620001896000838362000216565b80600260008282546200019d91906200047c565b90915550506001600160a01b03821660009081526020819052604081208054839290620001cc9084906200047c565b90915550506040518181526001600160a01b038316906000907fddf252ad1be2c89b69c2b068fc378daa952ba7f163c4a11628f55a4df523b3ef9060200160405180910390a35050565b620002206200023d565b620002388383836200023860201b620005f51760201c565b505050565b60055460ff1615620002855760405162461bcd60e51b815260206004820152601060248201526f14185d5cd8589b194e881c185d5cd95960821b604482015260640162000172565b565b828054620002959062000497565b90600052602060002090601f016020900481019282620002b9576000855562000304565b82601f10620002d457805160ff191683800117855562000304565b8280016001018555821562000304579182015b8281111562000304578251825591602001919060010190620002e7565b506200031292915062000316565b5090565b5b8082111562000312576000815560010162000317565b634e487b7160e01b600052601160045260246000fd5b600181815b80851115620003845781600019048211156200036857620003686200032d565b808516156200037657918102915b93841c939080029062000348565b509250929050565b6000826200039d575060016200043c565b81620003ac575060006200043c565b8160018114620003c55760028114620003d057620003f0565b60019150506200043c565b60ff841115620003e457620003e46200032d565b50506001821b6200043c565b5060208310610133831016604e8410600b841016171562000415575081810a6200043c565b62000421838362000343565b80600019048211156200043857620004386200032d565b0290505b92915050565b60006200045360ff8416836200038c565b9392505050565b60008160001904831182151516156200047757620004776200032d565b500290565b600082198211156200049257620004926200032d565b500190565b600181811c90821680620004ac57607f821691505b602082108103620004cd57634e487b7160e01b600052602260045260246000fd5b50919050565b61100480620004e36000396000f3fe608060405234801561001057600080fd5b506004361061016c5760003560e01c806370a08231116100cd57806395d89b4111610081578063a9059cbb11610066578063a9059cbb146102c4578063dd62ed3e146102d7578063f2fde38b1461031057600080fd5b806395d89b41146102a9578063a457c2d7146102b157600080fd5b806379cc6790116100b257806379cc6790146102655780638456cb59146102785780638da5cb5b1461028057600080fd5b806370a0823114610234578063715018a61461025d57600080fd5b8063395093511161012457806340c10f191161010957806340c10f191461020357806342966c68146102165780635c975abb1461022957600080fd5b806339509351146101e65780633f4ba83a146101f957600080fd5b806318160ddd1161015557806318160ddd146101b257806323b872dd146101c4578063313ce567146101d757600080fd5b806306fdde0314610171578063095ea7b31461018f575b600080fd5b610179610323565b6040516101869190610e0a565b60405180910390f35b6101a261019d366004610e7b565b6103b5565b6040519015158152602001610186565b6002545b604051908152602001610186565b6101a26101d2366004610ea5565b6103cd565b60405160128152602001610186565b6101a26101f4366004610e7b565b6103f1565b610201610430565b005b610201610211366004610e7b565b610442565b610201610224366004610ee1565b610458565b60055460ff166101a2565b6101b6610242366004610efa565b6001600160a01b031660009081526020819052604090205490565b610201610465565b610201610273366004610e7b565b610477565b61020161048c565b60055461010090046001600160a01b03166040516001600160a01b039091168152602001610186565b61017961049c565b6101a26102bf366004610e7b565b6104ab565b6101a26102d2366004610e7b565b61055a565b6101b66102e5366004610f1c565b6001600160a01b03918216600090815260016020908152604080832093909416825291909152205490565b61020161031e366004610efa565b610568565b60606003805461033290610f4f565b80601f016020809104026020016040519081016040528092919081815260200182805461035e90610f4f565b80156103ab5780601f10610380576101008083540402835291602001916103ab565b820191906000526020600020905b81548152906001019060200180831161038e57829003601f168201915b5050505050905090565b6000336103c38185856105fa565b5060019392505050565b6000336103db85828561071e565b6103e68585856107b0565b506001949350505050565b3360008181526001602090815260408083206001600160a01b03871684529091528120549091906103c3908290869061042b908790610f9f565b6105fa565b6104386109b8565b610440610a18565b565b61044a6109b8565b6104548282610a6a565b5050565b6104623382610b55565b50565b61046d6109b8565b6104406000610caf565b61048282338361071e565b6104548282610b55565b6104946109b8565b610440610d20565b60606004805461033290610f4f565b3360008181526001602090815260408083206001600160a01b03871684529091528120549091908381101561054d5760405162461bcd60e51b815260206004820152602560248201527f45524332303a2064656372656173656420616c6c6f77616e63652062656c6f7760448201527f207a65726f00000000000000000000000000000000000000000000000000000060648201526084015b60405180910390fd5b6103e682868684036105fa565b6000336103c38185856107b0565b6105706109b8565b6001600160a01b0381166105ec5760405162461bcd60e51b815260206004820152602660248201527f4f776e61626c653a206e6577206f776e657220697320746865207a65726f206160448201527f64647265737300000000000000000000000000000000000000000000000000006064820152608401610544565b61046281610caf565b505050565b6001600160a01b03831661065c5760405162461bcd60e51b8152602060048201526024808201527f45524332303a20617070726f76652066726f6d20746865207a65726f206164646044820152637265737360e01b6064820152608401610544565b6001600160a01b0382166106bd5760405162461bcd60e51b815260206004820152602260248201527f45524332303a20617070726f766520746f20746865207a65726f206164647265604482015261737360f01b6064820152608401610544565b6001600160a01b0383811660008181526001602090815260408083209487168084529482529182902085905590518481527f8c5be1e5ebec7d5bd14f71427d1e84f3dd0314c0f7b2291e5b200ac8c7c3b925910160405180910390a3505050565b6001600160a01b0383811660009081526001602090815260408083209386168352929052205460001981146107aa578181101561079d5760405162461bcd60e51b815260206004820152601d60248201527f45524332303a20696e73756666696369656e7420616c6c6f77616e63650000006044820152606401610544565b6107aa84848484036105fa565b50505050565b6001600160a01b03831661082c5760405162461bcd60e51b815260206004820152602560248201527f45524332303a207472616e736665722066726f6d20746865207a65726f20616460448201527f64726573730000000000000000000000000000000000000000000000000000006064820152608401610544565b6001600160a01b03821661088e5760405162461bcd60e51b815260206004820152602360248201527f45524332303a207472616e7366657220746f20746865207a65726f206164647260448201526265737360e81b6064820152608401610544565b610899838383610d5d565b6001600160a01b038316600090815260208190526040902054818110156109285760405162461bcd60e51b815260206004820152602660248201527f45524332303a207472616e7366657220616d6f756e742065786365656473206260448201527f616c616e636500000000000000000000000000000000000000000000000000006064820152608401610544565b6001600160a01b0380851660009081526020819052604080822085850390559185168152908120805484929061095f908490610f9f565b92505081905550826001600160a01b0316846001600160a01b03167fddf252ad1be2c89b69c2b068fc378daa952ba7f163c4a11628f55a4df523b3ef846040516109ab91815260200190565b60405180910390a36107aa565b6005546001600160a01b036101009091041633146104405760405162461bcd60e51b815260206004820181905260248201527f4f776e61626c653a2063616c6c6572206973206e6f7420746865206f776e65726044820152606401610544565b610a20610d65565b6005805460ff191690557f5db9ee0a495bf2e6ff9c91a7834c1ba4fdd244a5e8aa4e537bd38aeae4b073aa335b6040516001600160a01b03909116815260200160405180910390a1565b6001600160a01b038216610ac05760405162461bcd60e51b815260206004820152601f60248201527f45524332303a206d696e7420746f20746865207a65726f2061646472657373006044820152606401610544565b610acc60008383610d5d565b8060026000828254610ade9190610f9f565b90915550506001600160a01b03821660009081526020819052604081208054839290610b0b908490610f9f565b90915550506040518181526001600160a01b038316906000907fddf252ad1be2c89b69c2b068fc378daa952ba7f163c4a11628f55a4df523b3ef9060200160405180910390a35050565b6001600160a01b038216610bb55760405162461bcd60e51b815260206004820152602160248201527f45524332303a206275726e2066726f6d20746865207a65726f206164647265736044820152607360f81b6064820152608401610544565b610bc182600083610d5d565b6001600160a01b03821660009081526020819052604090205481811015610c355760405162461bcd60e51b815260206004820152602260248201527f45524332303a206275726e20616d6f756e7420657863656564732062616c616e604482015261636560f01b6064820152608401610544565b6001600160a01b0383166000908152602081905260408120838303905560028054849290610c64908490610fb7565b90915550506040518281526000906001600160a01b038516907fddf252ad1be2c89b69c2b068fc378daa952ba7f163c4a11628f55a4df523b3ef9060200160405180910390a3505050565b600580546001600160a01b038381166101008181027fffffffffffffffffffffff0000000000000000000000000000000000000000ff85161790945560405193909204169182907f8be0079c531659141344cd1fd0a4f28419497f9722a3daafe3b4186f6b6457e090600090a35050565b610d28610db7565b6005805460ff191660011790557f62e78cea01bee320cd4e420270b5ea74000d11b0c9f74754ebdbfc544b05a258610a4d3390565b6105f5610db7565b60055460ff166104405760405162461bcd60e51b815260206004820152601460248201527f5061757361626c653a206e6f74207061757365640000000000000000000000006044820152606401610544565b60055460ff16156104405760405162461bcd60e51b815260206004820152601060248201527f5061757361626c653a20706175736564000000000000000000000000000000006044820152606401610544565b600060208083528351808285015260005b81811015610e3757858101830151858201604001528201610e1b565b81811115610e49576000604083870101525b50601f01601f1916929092016040019392505050565b80356001600160a01b0381168114610e7657600080fd5b919050565b60008060408385031215610e8e57600080fd5b610e9783610e5f565b946020939093013593505050565b600080600060608486031215610eba57600080fd5b610ec384610e5f565b9250610ed160208501610e5f565b9150604084013590509250925092565b600060208284031215610ef357600080fd5b5035919050565b600060208284031215610f0c57600080fd5b610f1582610e5f565b9392505050565b60008060408385031215610f2f57600080fd5b610f3883610e5f565b9150610f4660208401610e5f565b90509250929050565b600181811c90821680610f6357607f821691505b602082108103610f8357634e487b7160e01b600052602260045260246000fd5b50919050565b634e487b7160e01b600052601160045260246000fd5b60008219821115610fb257610fb2610f89565b500190565b600082821015610fc957610fc9610f89565b50039056fea2646970667358221220fdd093225372cb51bc00018c8a26a3a9d0dd81e7e10ea724db092accf1315d4d64736f6c634300080d0033",
      "opcodes": "PUSH1 0x80 PUSH1 0x40 MSTORE CALLVALUE DUP1 ISZERO PUSH3 0x11 JUMPI PUSH1 0x0 DUP1 REVERT JUMPDEST POP PUSH1 0x40 MLOAD DUP1 PUSH1 0x40 ADD PUSH1 0x40 MSTORE DUP1 PUSH1 0x9 DUP2 MSTORE PUSH1 0x20 ADD PUSH9 0x20ABA2902A37B5B2B7 PUSH1 0xB9 SHL DUP2 MSTORE POP PUSH1 0x40 MLOAD DUP1 PUSH1 0x40 ADD PUSH1 0x40 MSTORE DUP1 PUSH1 0x3 DUP2 MSTORE PUSH1 0x20 ADD PUSH3 0x415745 PUSH1 0xE8 SHL DUP2 MSTORE POP DUP2 PUSH1 0x3 SWAP1 DUP1 MLOAD SWAP1 PUSH1 0x20 ADD SWAP1 PUSH3 0x68 SWAP3 SWAP2 SWAP1 PUSH3 0x287 JUMP JUMPDEST POP DUP1 MLOAD PUSH3 0x7E SWAP1 PUSH1 0x4 SWAP1 PUSH1 0x20 DUP5 ADD SWAP1 PUSH3 0x287 JUMP JUMPDEST POP POP PUSH1 0x5 DUP1 SLOAD PUSH1 0xFF NOT AND SWAP1 SSTORE POP PUSH3 0x96 CALLER PUSH3 0xC5 JUMP JUMPDEST PUSH3 0xBF CALLER PUSH3 0xA8 PUSH1 0x12 DUP1 PUSH3 0x442 JUMP JUMPDEST PUSH3 0xB9 SWAP1 PUSH5 0x2540BE400 PUSH3 0x45A JUMP JUMPDEST PUSH3 0x11F JUMP JUMPDEST PUSH3 0x4D3 JUMP JUMPDEST PUSH1 0x5 DUP1 SLOAD PUSH1 0x1 PUSH1 0x1 PUSH1 0xA0 SHL SUB DUP4 DUP2 AND PUSH2 0x100 DUP2 DUP2 MUL PUSH2 0x100 PUSH1 0x1 PUSH1 0xA8 SHL SUB NOT DUP6 AND OR SWAP1 SWAP5 SSTORE PUSH1 0x40 MLOAD SWAP4 SWAP1 SWAP3 DIV AND SWAP2 DUP3 SWAP1 PUSH32 0x8BE0079C531659141344CD1FD0A4F28419497F9722A3DAAFE3B4186F6B6457E0 SWAP1 PUSH1 0x0 SWAP1 LOG3 POP POP JUMP JUMPDEST PUSH1 0x1 PUSH1 0x1 PUSH1 0xA0 SHL SUB DUP3 AND PUSH3 0x17B JUMPI PUSH1 0x40 MLOAD PUSH3 0x461BCD PUSH1 0xE5 SHL DUP2 MSTORE PUSH1 0x20 PUSH1 0x4 DUP3 ADD MSTORE PUSH1 0x1F PUSH1 0x24 DUP3 ADD MSTORE PUSH32 0x45524332303A206D696E7420746F20746865207A65726F206164647265737300 PUSH1 0x44 DUP3 ADD MSTORE PUSH1 0x64 ADD JUMPDEST PUSH1 0x40 MLOAD DUP1 SWAP2 SUB SWAP1 REVERT JUMPDEST PUSH3 0x189 PUSH1 0x0 DUP4 DUP4 PUSH3 0x216 JUMP JUMPDEST DUP1 PUSH1 0x2 PUSH1 0x0 DUP3 DUP3 SLOAD PUSH3 0x19D SWAP2 SWAP1 PUSH3 0x47C JUMP JUMPDEST SWAP1 SWAP2 SSTORE POP POP PUSH1 0x1 PUSH1 0x1 PUSH1 0xA0 SHL SUB DUP3 AND PUSH1 0x0 SWAP1 DUP2 MSTORE PUSH1 0x20 DUP2 SWAP1 MSTORE PUSH1 0x40 DUP2 KECCAK256 DUP1 SLOAD DUP4 SWAP3 SWAP1 PUSH3 0x1CC SWAP1 DUP5 SWAP1 PUSH3 0x47C JUMP JUMPDEST SWAP1 SWAP2 SSTORE POP POP PUSH1 0x40 MLOAD DUP2 DUP2 MSTORE PUSH1 0x1 PUSH1 0x1 PUSH1 0xA0 SHL SUB DUP4 AND SWAP1 PUSH1 0x0 SWAP1 PUSH32 0xDDF252AD1BE2C89B69C2B068FC378DAA952BA7F163C4A11628F55A4DF523B3EF SWAP1 PUSH1 0x20 ADD PUSH1 0x40 MLOAD DUP1 SWAP2 SUB SWAP1 LOG3 POP POP JUMP JUMPDEST PUSH3 0x220 PUSH3 0x23D JUMP JUMPDEST PUSH3 0x238 DUP4 DUP4 DUP4 PUSH3 0x238 PUSH1 0x20 SHL PUSH3 0x5F5 OR PUSH1 0x20 SHR JUMP JUMPDEST POP POP POP JUMP JUMPDEST PUSH1 0x5 SLOAD PUSH1 0xFF AND ISZERO PUSH3 0x285 JUMPI PUSH1 0x40 MLOAD PUSH3 0x461BCD PUSH1 0xE5 SHL DUP2 MSTORE PUSH1 0x20 PUSH1 0x4 DUP3 ADD MSTORE PUSH1 0x10 PUSH1 0x24 DUP3 ADD MSTORE PUSH16 0x14185D5CD8589B194E881C185D5CD959 PUSH1 0x82 SHL PUSH1 0x44 DUP3 ADD MSTORE PUSH1 0x64 ADD PUSH3 0x172 JUMP JUMPDEST JUMP JUMPDEST DUP3 DUP1 SLOAD PUSH3 0x295 SWAP1 PUSH3 0x497 JUMP JUMPDEST SWAP1 PUSH1 0x0 MSTORE PUSH1 0x20 PUSH1 0x0 KECCAK256 SWAP1 PUSH1 0x1F ADD PUSH1 0x20 SWAP1 DIV DUP2 ADD SWAP3 DUP3 PUSH3 0x2B9 JUMPI PUSH1 0x0 DUP6 SSTORE PUSH3 0x304 JUMP JUMPDEST DUP3 PUSH1 0x1F LT PUSH3 0x2D4 JUMPI DUP1 MLOAD PUSH1 0xFF NOT AND DUP4 DUP1 ADD OR DUP6 SSTORE PUSH3 0x304 JUMP JUMPDEST DUP3 DUP1 ADD PUSH1 0x1 ADD DUP6 SSTORE DUP3 ISZERO PUSH3 0x304 JUMPI SWAP2 DUP3 ADD JUMPDEST DUP3 DUP2 GT ISZERO PUSH3 0x304 JUMPI DUP3 MLOAD DUP3 SSTORE SWAP2 PUSH1 0x20 ADD SWAP2 SWAP1 PUSH1 0x1 ADD SWAP1 PUSH3 0x2E7 JUMP JUMPDEST POP PUSH3 0x312 SWAP3 SWAP2 POP PUSH3 0x316 JUMP JUMPDEST POP SWAP1 JUMP JUMPDEST JUMPDEST DUP1 DUP3 GT ISZERO PUSH3 0x312 JUMPI PUSH1 0x0 DUP2 SSTORE PUSH1 0x1 ADD PUSH3 0x317 JUMP JUMPDEST PUSH4 0x4E487B71 PUSH1 0xE0 SHL PUSH1 0x0 MSTORE PUSH1 0x11 PUSH1 0x4 MSTORE PUSH1 0x24 PUSH1 0x0 REVERT JUMPDEST PUSH1 0x1 DUP2 DUP2 JUMPDEST DUP1 DUP6 GT ISZERO PUSH3 0x384 JUMPI DUP2 PUSH1 0x0 NOT DIV DUP3 GT ISZERO PUSH3 0x368 JUMPI PUSH3 0x368 PUSH3 0x32D JUMP JUMPDEST DUP1 DUP6 AND ISZERO PUSH3 0x376 JUMPI SWAP2 DUP2 MUL SWAP2 JUMPDEST SWAP4 DUP5 SHR SWAP4 SWAP1 DUP1 MUL SWAP1 PUSH3 0x348 JUMP JUMPDEST POP SWAP3 POP SWAP3 SWAP1 POP JUMP JUMPDEST PUSH1 0x0 DUP3 PUSH3 0x39D JUMPI POP PUSH1 0x1 PUSH3 0x43C JUMP JUMPDEST DUP2 PUSH3 0x3AC JUMPI POP PUSH1 0x0 PUSH3 0x43C JUMP JUMPDEST DUP2 PUSH1 0x1 DUP2 EQ PUSH3 0x3C5 JUMPI PUSH1 0x2 DUP2 EQ PUSH3 0x3D0 JUMPI PUSH3 0x3F0 JUMP JUMPDEST PUSH1 0x1 SWAP2 POP POP PUSH3 0x43C JUMP JUMPDEST PUSH1 0xFF DUP5 GT ISZERO PUSH3 0x3E4 JUMPI PUSH3 0x3E4 PUSH3 0x32D JUMP JUMPDEST POP POP PUSH1 0x1 DUP3 SHL PUSH3 0x43C JUMP JUMPDEST POP PUSH1 0x20 DUP4 LT PUSH2 0x133 DUP4 LT AND PUSH1 0x4E DUP5 LT PUSH1 0xB DUP5 LT AND OR ISZERO PUSH3 0x415 JUMPI POP DUP2 DUP2 EXP PUSH3 0x43C JUMP JUMPDEST PUSH3 0x421 DUP4 DUP4 PUSH3 0x343 JUMP JUMPDEST DUP1 PUSH1 0x0 NOT DIV DUP3 GT ISZERO PUSH3 0x438 JUMPI PUSH3 0x438 PUSH3 0x32D JUMP JUMPDEST MUL SWAP1 POP JUMPDEST SWAP3 SWAP2 POP POP JUMP JUMPDEST PUSH1 0x0 PUSH3 0x453 PUSH1 0xFF DUP5 AND DUP4 PUSH3 0x38C JUMP JUMPDEST SWAP4 SWAP3 POP POP POP JUMP JUMPDEST PUSH1 0x0 DUP2 PUSH1 0x0 NOT DIV DUP4 GT DUP3 ISZERO ISZERO AND ISZERO PUSH3 0x477 JUMPI PUSH3 0x477 PUSH3 0x32D JUMP JUMPDEST POP MUL SWAP1 JUMP JUMPDEST PUSH1 0x0 DUP3 NOT DUP3 GT ISZERO PUSH3 0x492 JUMPI PUSH3 0x492 PUSH3 0x32D JUMP JUMPDEST POP ADD SWAP1 JUMP JUMPDEST PUSH1 0x1 DUP2 DUP2 SHR SWAP1 DUP3 AND DUP1 PUSH3 0x4AC JUMPI PUSH1 0x7F DUP3 AND SWAP2 POP JUMPDEST PUSH1 0x20 DUP3 LT DUP2 SUB PUSH3 0x4CD JUMPI PUSH4 0x4E487B71 PUSH1 0xE0 SHL PUSH1 0x0 MSTORE PUSH1 0x22 PUSH1 0x4 MSTORE PUSH1 0x24 PUSH1 0x0 REVERT JUMPDEST POP SWAP2 SWAP1 POP JUMP JUMPDEST PUSH2 0x1004 DUP1 PUSH3 0x4E3 PUSH1 0x0 CODECOPY PUSH1 0x0 RETURN INVALID PUSH1 0x80 PUSH1 0x40 MSTORE CALLVALUE DUP1 ISZERO PUSH2 0x10 JUMPI PUSH1 0x0 DUP1 REVERT JUMPDEST POP PUSH1 0x4 CALLDATASIZE LT PUSH2 0x16C JUMPI PUSH1 0x0 CALLDATALOAD PUSH1 0xE0 SHR DUP1 PUSH4 0x70A08231 GT PUSH2 0xCD JUMPI DUP1 PUSH4 0x95D89B41 GT PUSH2 0x81 JUMPI DUP1 PUSH4 0xA9059CBB GT PUSH2 0x66 JUMPI DUP1 PUSH4 0xA9059CBB EQ PUSH2 0x2C4 JUMPI DUP1 PUSH4 0xDD62ED3E EQ PUSH2 0x2D7 JUMPI DUP1 PUSH4 0xF2FDE38B EQ PUSH2 0x310 JUMPI PUSH1 0x0 DUP1 REVERT JUMPDEST DUP1 PUSH4 0x95D89B41 EQ PUSH2 0x2A9 JUMPI DUP1 PUSH4 0xA457C2D7 EQ PUSH2 0x2B1 JUMPI PUSH1 0x0 DUP1 REVERT JUMPDEST DUP1 PUSH4 0x79CC6790 GT PUSH2 0xB2 JUMPI DUP1 PUSH4 0x79CC6790 EQ PUSH2 0x265 JUMPI DUP1 PUSH4 0x8456CB59 EQ PUSH2 0x278 JUMPI DUP1 PUSH4 0x8DA5CB5B EQ PUSH2 0x280 JUMPI PUSH1 0x0 DUP1 REVERT JUMPDEST DUP1 PUSH4 0x70A08231 EQ PUSH2 0x234 JUMPI DUP1 PUSH4 0x715018A6 EQ PUSH2 0x25D JUMPI PUSH1 0x0 DUP1 REVERT JUMPDEST DUP1 PUSH4 0x39509351 GT PUSH2 0x124 JUMPI DUP1 PUSH4 0x40C10F19 GT PUSH2 0x109 JUMPI DUP1 PUSH4 0x40C10F19 EQ PUSH2 0x203 JUMPI DUP1 PUSH4 0x42966C68 EQ PUSH2 0x216 JUMPI DUP1 PUSH4 0x5C975ABB EQ PUSH2 0x229 JUMPI PUSH1 0x0 DUP1 REVERT JUMPDEST DUP1 PUSH4 0x39509351 EQ PUSH2 0x1E6 JUMPI DUP1 PUSH4 0x3F4BA83A EQ PUSH2 0x1F9 JUMPI PUSH1 0x0 DUP1 REVERT JUMPDEST DUP1 PUSH4 0x18160DDD GT PUSH2 0x155 JUMPI DUP1 PUSH4 0x18160DDD EQ PUSH2 0x1B2 JUMPI DUP1 PUSH4 0x23B872DD EQ PUSH2 0x1C4 JUMPI DUP1 PUSH4 0x313CE567 EQ PUSH2 0x1D7 JUMPI PUSH1 0x0 DUP1 REVERT JUMPDEST DUP1 PUSH4 0x6FDDE03 EQ PUSH2 0x171 JUMPI DUP1 PUSH4 0x95EA7B3 EQ PUSH2 0x18F JUMPI JUMPDEST PUSH1 0x0 DUP1 REVERT JUMPDEST PUSH2 0x179 PUSH2 0x323 JUMP JUMPDEST PUSH1 0x40 MLOAD PUSH2 0x186 SWAP2 SWAP1 PUSH2 0xE0A JUMP JUMPDEST PUSH1 0x40 MLOAD DUP1 SWAP2 SUB SWAP1 RETURN JUMPDEST PUSH2 0x1A2 PUSH2 0x19D CALLDATASIZE PUSH1 0x4 PUSH2 0xE7B JUMP JUMPDEST PUSH2 0x3B5 JUMP JUMPDEST PUSH1 0x40 MLOAD SWAP1 ISZERO ISZERO DUP2 MSTORE PUSH1 0x20 ADD PUSH2 0x186 JUMP JUMPDEST PUSH1 0x2 SLOAD JUMPDEST PUSH1 0x40 MLOAD SWAP1 DUP2 MSTORE PUSH1 0x20 ADD PUSH2 0x186 JUMP JUMPDEST PUSH2 0x1A2 PUSH2 0x1D2 CALLDATASIZE PUSH1 0x4 PUSH2 0xEA5 JUMP JUMPDEST PUSH2 0x3CD JUMP JUMPDEST PUSH1 0x40 MLOAD PUSH1 0x12 DUP2 MSTORE PUSH1 0x20 ADD PUSH2 0x186 JUMP JUMPDEST PUSH2 0x1A2 PUSH2 0x1F4 CALLDATASIZE PUSH1 0x4 PUSH2 0xE7B JUMP JUMPDEST PUSH2 0x3F1 JUMP JUMPDEST PUSH2 0x201 PUSH2 0x430 JUMP JUMPDEST STOP JUMPDEST PUSH2 0x201 PUSH2 0x211 CALLDATASIZE PUSH1 0x4 PUSH2 0xE7B JUMP JUMPDEST PUSH2 0x442 JUMP JUMPDEST PUSH2 0x201 PUSH2 0x224 CALLDATASIZE PUSH1 0x4 PUSH2 0xEE1 JUMP JUMPDEST PUSH2 0x458 JUMP JUMPDEST PUSH1 0x5 SLOAD PUSH1 0xFF AND PUSH2 0x1A2 JUMP JUMPDEST PUSH2 0x1B6 PUSH2 0x242 CALLDATASIZE PUSH1 0x4 PUSH2 0xEFA JUMP JUMPDEST PUSH1 0x1 PUSH1 0x1 PUSH1 0xA0 SHL SUB AND PUSH1 0x0 SWAP1 DUP2 MSTORE PUSH1 0x20 DUP2 SWAP1 MSTORE PUSH1 0x40 SWAP1 KECCAK256 SLOAD SWAP1 JUMP JUMPDEST PUSH2 0x201 PUSH2 0x465 JUMP JUMPDEST PUSH2 0x201 PUSH2 0x273 CALLDATASIZE PUSH1 0x4 PUSH2 0xE7B JUMP JUMPDEST PUSH2 0x477 JUMP JUMPDEST PUSH2 0x201 PUSH2 0x48C JUMP JUMPDEST PUSH1 0x5 SLOAD PUSH2 0x100 SWAP1 DIV PUSH1 0x1 PUSH1 0x1 PUSH1 0xA0 SHL SUB AND PUSH1 0x40 MLOAD PUSH1 0x1 PUSH1 0x1 PUSH1 0xA0 SHL SUB SWAP1 SWAP2 AND DUP2 MSTORE PUSH1 0x20 ADD PUSH2 0x186 JUMP JUMPDEST PUSH2 0x179 PUSH2 0x49C JUMP JUMPDEST PUSH2 0x1A2 PUSH2 0x2BF CALLDATASIZE PUSH1 0x4 PUSH2 0xE7B JUMP JUMPDEST PUSH2 0x4AB JUMP JUMPDEST PUSH2 0x1A2 PUSH2 0x2D2 CALLDATASIZE PUSH1 0x4 PUSH2 0xE7B JUMP JUMPDEST PUSH2 0x55A JUMP JUMPDEST PUSH2 0x1B6 PUSH2 0x2E5 CALLDATASIZE PUSH1 0x4 PUSH2 0xF1C JUMP JUMPDEST PUSH1 0x1 PUSH1 0x1 PUSH1 0xA0 SHL SUB SWAP2 DUP3 AND PUSH1 0x0 SWAP1 DUP2 MSTORE PUSH1 0x1 PUSH1 0x20 SWAP1 DUP2 MSTORE PUSH1 0x40 DUP1 DUP4 KECCAK256 SWAP4 SWAP1 SWAP5 AND DUP3 MSTORE SWAP2 SWAP1 SWAP2 MSTORE KECCAK256 SLOAD SWAP1 JUMP JUMPDEST PUSH2 0x201 PUSH2 0x31E CALLDATASIZE PUSH1 0x4 PUSH2 0xEFA JUMP JUMPDEST PUSH2 0x568 JUMP JUMPDEST PUSH1 0x60 PUSH1 0x3 DUP1 SLOAD PUSH2 0x332 SWAP1 PUSH2 0xF4F JUMP JUMPDEST DUP1 PUSH1 0x1F ADD PUSH1 0x20 DUP1 SWAP2 DIV MUL PUSH1 0x20 ADD PUSH1 0x40 MLOAD SWAP1 DUP2 ADD PUSH1 0x40 MSTORE DUP1 SWAP3 SWAP2 SWAP1 DUP2 DUP2 MSTORE PUSH1 0x20 ADD DUP3 DUP1 SLOAD PUSH2 0x35E SWAP1 PUSH2 0xF4F JUMP JUMPDEST DUP1 ISZERO PUSH2 0x3AB JUMPI DUP1 PUSH1 0x1F LT PUSH2 0x380 JUMPI PUSH2 0x100 DUP1 DUP4 SLOAD DIV MUL DUP4 MSTORE SWAP2 PUSH1 0x20 ADD SWAP2 PUSH2 0x3AB JUMP JUMPDEST DUP3 ADD SWAP2 SWAP1 PUSH1 0x0 MSTORE PUSH1 0x20 PUSH1 0x0 KECCAK256 SWAP1 JUMPDEST DUP2 SLOAD DUP2 MSTORE SWAP1 PUSH1 0x1 ADD SWAP1 PUSH1 0x20 ADD DUP1 DUP4 GT PUSH2 0x38E JUMPI DUP3 SWAP1 SUB PUSH1 0x1F AND DUP3 ADD SWAP2 JUMPDEST POP POP POP POP POP SWAP1 POP SWAP1 JUMP JUMPDEST PUSH1 0x0 CALLER PUSH2 0x3C3 DUP2 DUP6 DUP6 PUSH2 0x5FA JUMP JUMPDEST POP PUSH1 0x1 SWAP4 SWAP3 POP POP POP JUMP JUMPDEST PUSH1 0x0 CALLER PUSH2 0x3DB DUP6 DUP3 DUP6 PUSH2 0x71E JUMP JUMPDEST PUSH2 0x3E6 DUP6 DUP6 DUP6 PUSH2 0x7B0 JUMP JUMPDEST POP PUSH1 0x1 SWAP5 SWAP4 POP POP POP POP JUMP JUMPDEST CALLER PUSH1 0x0 DUP2 DUP2 MSTORE PUSH1 0x1 PUSH1 0x20 SWAP1 DUP2 MSTORE PUSH1 0x40 DUP1 DUP4 KECCAK256 PUSH1 0x1 PUSH1 0x1 PUSH1 0xA0 SHL SUB DUP8 AND DUP5 MSTORE SWAP1 SWAP2 MSTORE DUP2 KECCAK256 SLOAD SWAP1 SWAP2 SWAP1 PUSH2 0x3C3 SWAP1 DUP3 SWAP1 DUP7 SWAP1 PUSH2 0x42B SWAP1 DUP8 SWAP1 PUSH2 0xF9F JUMP JUMPDEST PUSH2 0x5FA JUMP JUMPDEST PUSH2 0x438 PUSH2 0x9B8 JUMP JUMPDEST PUSH2 0x440 PUSH2 0xA18 JUMP JUMPDEST JUMP JUMPDEST PUSH2 0x44A PUSH2 0x9B8 JUMP JUMPDEST PUSH2 0x454 DUP3 DUP3 PUSH2 0xA6A JUMP JUMPDEST POP POP JUMP JUMPDEST PUSH2 0x462 CALLER DUP3 PUSH2 0xB55 JUMP JUMPDEST POP JUMP JUMPDEST PUSH2 0x46D PUSH2 0x9B8 JUMP JUMPDEST PUSH2 0x440 PUSH1 0x0 PUSH2 0xCAF JUMP JUMPDEST PUSH2 0x482 DUP3 CALLER DUP4 PUSH2 0x71E JUMP JUMPDEST PUSH2 0x454 DUP3 DUP3 PUSH2 0xB55 JUMP JUMPDEST PUSH2 0x494 PUSH2 0x9B8 JUMP JUMPDEST PUSH2 0x440 PUSH2 0xD20 JUMP JUMPDEST PUSH1 0x60 PUSH1 0x4 DUP1 SLOAD PUSH2 0x332 SWAP1 PUSH2 0xF4F JUMP JUMPDEST CALLER PUSH1 0x0 DUP2 DUP2 MSTORE PUSH1 0x1 PUSH1 0x20 SWAP1 DUP2 MSTORE PUSH1 0x40 DUP1 DUP4 KECCAK256 PUSH1 0x1 PUSH1 0x1 PUSH1 0xA0 SHL SUB DUP8 AND DUP5 MSTORE SWAP1 SWAP2 MSTORE DUP2 KECCAK256 SLOAD SWAP1 SWAP2 SWAP1 DUP4 DUP2 LT ISZERO PUSH2 0x54D JUMPI PUSH1 0x40 MLOAD PUSH3 0x461BCD PUSH1 0xE5 SHL DUP2 MSTORE PUSH1 0x20 PUSH1 0x4 DUP3 ADD MSTORE PUSH1 0x25 PUSH1 0x24 DUP3 ADD MSTORE PUSH32 0x45524332303A2064656372656173656420616C6C6F77616E63652062656C6F77 PUSH1 0x44 DUP3 ADD MSTORE PUSH32 0x207A65726F000000000000000000000000000000000000000000000000000000 PUSH1 0x64 DUP3 ADD MSTORE PUSH1 0x84 ADD JUMPDEST PUSH1 0x40 MLOAD DUP1 SWAP2 SUB SWAP1 REVERT JUMPDEST PUSH2 0x3E6 DUP3 DUP7 DUP7 DUP5 SUB PUSH2 0x5FA JUMP JUMPDEST PUSH1 0x0 CALLER PUSH2 0x3C3 DUP2 DUP6 DUP6 PUSH2 0x7B0 JUMP JUMPDEST PUSH2 0x570 PUSH2 0x9B8 JUMP JUMPDEST PUSH1 0x1 PUSH1 0x1 PUSH1 0xA0 SHL SUB DUP2 AND PUSH2 0x5EC JUMPI PUSH1 0x40 MLOAD PUSH3 0x461BCD PUSH1 0xE5 SHL DUP2 MSTORE PUSH1 0x20 PUSH1 0x4 DUP3 ADD MSTORE PUSH1 0x26 PUSH1 0x24 DUP3 ADD MSTORE PUSH32 0x4F776E61626C653A206E6577206F776E657220697320746865207A65726F2061 PUSH1 0x44 DUP3 ADD MSTORE PUSH32 0x6464726573730000000000000000000000000000000000000000000000000000 PUSH1 0x64 DUP3 ADD MSTORE PUSH1 0x84 ADD PUSH2 0x544 JUMP JUMPDEST PUSH2 0x462 DUP2 PUSH2 0xCAF JUMP JUMPDEST POP POP POP JUMP JUMPDEST PUSH1 0x1 PUSH1 0x1 PUSH1 0xA0 SHL SUB DUP4 AND PUSH2 0x65C JUMPI PUSH1 0x40 MLOAD PUSH3 0x461BCD PUSH1 0xE5 SHL DUP2 MSTORE PUSH1 0x20 PUSH1 0x4 DUP3 ADD MSTORE PUSH1 0x24 DUP1 DUP3 ADD MSTORE PUSH32 0x45524332303A20617070726F76652066726F6D20746865207A65726F20616464 PUSH1 0x44 DUP3 ADD MSTORE PUSH4 0x72657373 PUSH1 0xE0 SHL PUSH1 0x64 DUP3 ADD MSTORE PUSH1 0x84 ADD PUSH2 0x544 JUMP JUMPDEST PUSH1 0x1 PUSH1 0x1 PUSH1 0xA0 SHL SUB DUP3 AND PUSH2 0x6BD JUMPI PUSH1 0x40 MLOAD PUSH3 0x461BCD PUSH1 0xE5 SHL DUP2 MSTORE PUSH1 0x20 PUSH1 0x4 DUP3 ADD MSTORE PUSH1 0x22 PUSH1 0x24 DUP3 ADD MSTORE PUSH32 0x45524332303A20617070726F766520746F20746865207A65726F206164647265 PUSH1 0x44 DUP3 ADD MSTORE PUSH2 0x7373 PUSH1 0xF0 SHL PUSH1 0x64 DUP3 ADD MSTORE PUSH1 0x84 ADD PUSH2 0x544 JUMP JUMPDEST PUSH1 0x1 PUSH1 0x1 PUSH1 0xA0 SHL SUB DUP4 DUP2 AND PUSH1 0x0 DUP2 DUP2 MSTORE PUSH1 0x1 PUSH1 0x20 SWAP1 DUP2 MSTORE PUSH1 0x40 DUP1 DUP4 KECCAK256 SWAP5 DUP8 AND DUP1 DUP5 MSTORE SWAP5 DUP3 MSTORE SWAP2 DUP3 SWAP1 KECCAK256 DUP6 SWAP1 SSTORE SWAP1 MLOAD DUP5 DUP2 MSTORE PUSH32 0x8C5BE1E5EBEC7D5BD14F71427D1E84F3DD0314C0F7B2291E5B200AC8C7C3B925 SWAP2 ADD PUSH1 0x40 MLOAD DUP1 SWAP2 SUB SWAP1 LOG3 POP POP POP JUMP JUMPDEST PUSH1 0x1 PUSH1 0x1 PUSH1 0xA0 SHL SUB DUP4 DUP2 AND PUSH1 0x0 SWAP1 DUP2 MSTORE PUSH1 0x1 PUSH1 0x20 SWAP1 DUP2 MSTORE PUSH1 0x40 DUP1 DUP4 KECCAK256 SWAP4 DUP7 AND DUP4 MSTORE SWAP3 SWAP1 MSTORE KECCAK256 SLOAD PUSH1 0x0 NOT DUP2 EQ PUSH2 0x7AA JUMPI DUP2 DUP2 LT ISZERO PUSH2 0x79D JUMPI PUSH1 0x40 MLOAD PUSH3 0x461BCD PUSH1 0xE5 SHL DUP2 MSTORE PUSH1 0x20 PUSH1 0x4 DUP3 ADD MSTORE PUSH1 0x1D PUSH1 0x24 DUP3 ADD MSTORE PUSH32 0x45524332303A20696E73756666696369656E7420616C6C6F77616E6365000000 PUSH1 0x44 DUP3 ADD MSTORE PUSH1 0x64 ADD PUSH2 0x544 JUMP JUMPDEST PUSH2 0x7AA DUP5 DUP5 DUP5 DUP5 SUB PUSH2 0x5FA JUMP JUMPDEST POP POP POP POP JUMP JUMPDEST PUSH1 0x1 PUSH1 0x1 PUSH1 0xA0 SHL SUB DUP4 AND PUSH2 0x82C JUMPI PUSH1 0x40 MLOAD PUSH3 0x461BCD PUSH1 0xE5 SHL DUP2 MSTORE PUSH1 0x20 PUSH1 0x4 DUP3 ADD MSTORE PUSH1 0x25 PUSH1 0x24 DUP3 ADD MSTORE PUSH32 0x45524332303A207472616E736665722066726F6D20746865207A65726F206164 PUSH1 0x44 DUP3 ADD MSTORE PUSH32 0x6472657373000000000000000000000000000000000000000000000000000000 PUSH1 0x64 DUP3 ADD MSTORE PUSH1 0x84 ADD PUSH2 0x544 JUMP JUMPDEST PUSH1 0x1 PUSH1 0x1 PUSH1 0xA0 SHL SUB DUP3 AND PUSH2 0x88E JUMPI PUSH1 0x40 MLOAD PUSH3 0x461BCD PUSH1 0xE5 SHL DUP2 MSTORE PUSH1 0x20 PUSH1 0x4 DUP3 ADD MSTORE PUSH1 0x23 PUSH1 0x24 DUP3 ADD MSTORE PUSH32 0x45524332303A207472616E7366657220746F20746865207A65726F2061646472 PUSH1 0x44 DUP3 ADD MSTORE PUSH3 0x657373 PUSH1 0xE8 SHL PUSH1 0x64 DUP3 ADD MSTORE PUSH1 0x84 ADD PUSH2 0x544 JUMP JUMPDEST PUSH2 0x899 DUP4 DUP4 DUP4 PUSH2 0xD5D JUMP JUMPDEST PUSH1 0x1 PUSH1 0x1 PUSH1 0xA0 SHL SUB DUP4 AND PUSH1 0x0 SWAP1 DUP2 MSTORE PUSH1 0x20 DUP2 SWAP1 MSTORE PUSH1 0x40 SWAP1 KECCAK256 SLOAD DUP2 DUP2 LT ISZERO PUSH2 0x928 JUMPI PUSH1 0x40 MLOAD PUSH3 0x461BCD PUSH1 0xE5 SHL DUP2 MSTORE PUSH1 0x20 PUSH1 0x4 DUP3 ADD MSTORE PUSH1 0x26 PUSH1 0x24 DUP3 ADD MSTORE PUSH32 0x45524332303A207472616E7366657220616D6F756E7420657863656564732062 PUSH1 0x44 DUP3 ADD MSTORE PUSH32 0x616C616E63650000000000000000000000000000000000000000000000000000 PUSH1 0x64 DUP3 ADD MSTORE PUSH1 0x84 ADD PUSH2 0x544 JUMP JUMPDEST PUSH1 0x1 PUSH1 0x1 PUSH1 0xA0 SHL SUB DUP1 DUP6 AND PUSH1 0x0 SWAP1 DUP2 MSTORE PUSH1 0x20 DUP2 SWAP1 MSTORE PUSH1 0x40 DUP1 DUP3 KECCAK256 DUP6 DUP6 SUB SWAP1 SSTORE SWAP2 DUP6 AND DUP2 MSTORE SWAP1 DUP2 KECCAK256 DUP1 SLOAD DUP5 SWAP3 SWAP1 PUSH2 0x95F SWAP1 DUP5 SWAP1 PUSH2 0xF9F JUMP JUMPDEST SWAP3 POP POP DUP2 SWAP1 SSTORE POP DUP3 PUSH1 0x1 PUSH1 0x1 PUSH1 0xA0 SHL SUB AND DUP5 PUSH1 0x1 PUSH1 0x1 PUSH1 0xA0 SHL SUB AND PUSH32 0xDDF252AD1BE2C89B69C2B068FC378DAA952BA7F163C4A11628F55A4DF523B3EF DUP5 PUSH1 0x40 MLOAD PUSH2 0x9AB SWAP2 DUP2 MSTORE PUSH1 0x20 ADD SWAP1 JUMP JUMPDEST PUSH1 0x40 MLOAD DUP1 SWAP2 SUB SWAP1 LOG3 PUSH2 0x7AA JUMP JUMPDEST PUSH1 0x5 SLOAD PUSH1 0x1 PUSH1 0x1 PUSH1 0xA0 SHL SUB PUSH2 0x100 SWAP1 SWAP2 DIV AND CALLER EQ PUSH2 0x440 JUMPI PUSH1 0x40 MLOAD PUSH3 0x461BCD PUSH1 0xE5 SHL DUP2 MSTORE PUSH1 0x20 PUSH1 0x4 DUP3 ADD DUP2 SWAP1 MSTORE PUSH1 0x24 DUP3 ADD MSTORE PUSH32 0x4F776E61626C653A2063616C6C6572206973206E6F7420746865206F776E6572 PUSH1 0x44 DUP3 ADD MSTORE PUSH1 0x64 ADD PUSH2 0x544 JUMP JUMPDEST PUSH2 0xA20 PUSH2 0xD65 JUMP JUMPDEST PUSH1 0x5 DUP1 SLOAD PUSH1 0xFF NOT AND SWAP1 SSTORE PUSH32 0x5DB9EE0A495BF2E6FF9C91A7834C1BA4FDD244A5E8AA4E537BD38AEAE4B073AA CALLER JUMPDEST PUSH1 0x40 MLOAD PUSH1 0x1 PUSH1 0x1 PUSH1 0xA0 SHL SUB SWAP1 SWAP2 AND DUP2 MSTORE PUSH1 0x20 ADD PUSH1 0x40 MLOAD DUP1 SWAP2 SUB SWAP1 LOG1 JUMP JUMPDEST PUSH1 0x1 PUSH1 0x1 PUSH1 0xA0 SHL SUB DUP3 AND PUSH2 0xAC0 JUMPI PUSH1 0x40 MLOAD PUSH3 0x461BCD PUSH1 0xE5 SHL DUP2 MSTORE PUSH1 0x20 PUSH1 0x4 DUP3 ADD MSTORE PUSH1 0x1F PUSH1 0x24 DUP3 ADD MSTORE PUSH32 0x45524332303A206D696E7420746F20746865207A65726F206164647265737300 PUSH1 0x44 DUP3 ADD MSTORE PUSH1 0x64 ADD PUSH2 0x544 JUMP JUMPDEST PUSH2 0xACC PUSH1 0x0 DUP4 DUP4 PUSH2 0xD5D JUMP JUMPDEST DUP1 PUSH1 0x2 PUSH1 0x0 DUP3 DUP3 SLOAD PUSH2 0xADE SWAP2 SWAP1 PUSH2 0xF9F JUMP JUMPDEST SWAP1 SWAP2 SSTORE POP POP PUSH1 0x1 PUSH1 0x1 PUSH1 0xA0 SHL SUB DUP3 AND PUSH1 0x0 SWAP1 DUP2 MSTORE PUSH1 0x20 DUP2 SWAP1 MSTORE PUSH1 0x40 DUP2 KECCAK256 DUP1 SLOAD DUP4 SWAP3 SWAP1 PUSH2 0xB0B SWAP1 DUP5 SWAP1 PUSH2 0xF9F JUMP JUMPDEST SWAP1 SWAP2 SSTORE POP POP PUSH1 0x40 MLOAD DUP2 DUP2 MSTORE PUSH1 0x1 PUSH1 0x1 PUSH1 0xA0 SHL SUB DUP4 AND SWAP1 PUSH1 0x0 SWAP1 PUSH32 0xDDF252AD1BE2C89B69C2B068FC378DAA952BA7F163C4A11628F55A4DF523B3EF SWAP1 PUSH1 0x20 ADD PUSH1 0x40 MLOAD DUP1 SWAP2 SUB SWAP1 LOG3 POP POP JUMP JUMPDEST PUSH1 0x1 PUSH1 0x1 PUSH1 0xA0 SHL SUB DUP3 AND PUSH2 0xBB5 JUMPI PUSH1 0x40 MLOAD PUSH3 0x461BCD PUSH1 0xE5 SHL DUP2 MSTORE PUSH1 0x20 PUSH1 0x4 DUP3 ADD MSTORE PUSH1 0x21 PUSH1 0x24 DUP3 ADD MSTORE PUSH32 0x45524332303A206275726E2066726F6D20746865207A65726F20616464726573 PUSH1 0x44 DUP3 ADD MSTORE PUSH1 0x73 PUSH1 0xF8 SHL PUSH1 0x64 DUP3 ADD MSTORE PUSH1 0x84 ADD PUSH2 0x544 JUMP JUMPDEST PUSH2 0xBC1 DUP3 PUSH1 0x0 DUP4 PUSH2 0xD5D JUMP JUMPDEST PUSH1 0x1 PUSH1 0x1 PUSH1 0xA0 SHL SUB DUP3 AND PUSH1 0x0 SWAP1 DUP2 MSTORE PUSH1 0x20 DUP2 SWAP1 MSTORE PUSH1 0x40 SWAP1 KECCAK256 SLOAD DUP2 DUP2 LT ISZERO PUSH2 0xC35 JUMPI PUSH1 0x40 MLOAD PUSH3 0x461BCD PUSH1 0xE5 SHL DUP2 MSTORE PUSH1 0x20 PUSH1 0x4 DUP3 ADD MSTORE PUSH1 0x22 PUSH1 0x24 DUP3 ADD MSTORE PUSH32 0x45524332303A206275726E20616D6F756E7420657863656564732062616C616E PUSH1 0x44 DUP3 ADD MSTORE PUSH2 0x6365 PUSH1 0xF0 SHL PUSH1 0x64 DUP3 ADD MSTORE PUSH1 0x84 ADD PUSH2 0x544 JUMP JUMPDEST PUSH1 0x1 PUSH1 0x1 PUSH1 0xA0 SHL SUB DUP4 AND PUSH1 0x0 SWAP1 DUP2 MSTORE PUSH1 0x20 DUP2 SWAP1 MSTORE PUSH1 0x40 DUP2 KECCAK256 DUP4 DUP4 SUB SWAP1 SSTORE PUSH1 0x2 DUP1 SLOAD DUP5 SWAP3 SWAP1 PUSH2 0xC64 SWAP1 DUP5 SWAP1 PUSH2 0xFB7 JUMP JUMPDEST SWAP1 SWAP2 SSTORE POP POP PUSH1 0x40 MLOAD DUP3 DUP2 MSTORE PUSH1 0x0 SWAP1 PUSH1 0x1 PUSH1 0x1 PUSH1 0xA0 SHL SUB DUP6 AND SWAP1 PUSH32 0xDDF252AD1BE2C89B69C2B068FC378DAA952BA7F163C4A11628F55A4DF523B3EF SWAP1 PUSH1 0x20 ADD PUSH1 0x40 MLOAD DUP1 SWAP2 SUB SWAP1 LOG3 POP POP POP JUMP JUMPDEST PUSH1 0x5 DUP1 SLOAD PUSH1 0x1 PUSH1 0x1 PUSH1 0xA0 SHL SUB DUP4 DUP2 AND PUSH2 0x100 DUP2 DUP2 MUL PUSH32 0xFFFFFFFFFFFFFFFFFFFFFF0000000000000000000000000000000000000000FF DUP6 AND OR SWAP1 SWAP5 SSTORE PUSH1 0x40 MLOAD SWAP4 SWAP1 SWAP3 DIV AND SWAP2 DUP3 SWAP1 PUSH32 0x8BE0079C531659141344CD1FD0A4F28419497F9722A3DAAFE3B4186F6B6457E0 SWAP1 PUSH1 0x0 SWAP1 LOG3 POP POP JUMP JUMPDEST PUSH2 0xD28 PUSH2 0xDB7 JUMP JUMPDEST PUSH1 0x5 DUP1 SLOAD PUSH1 0xFF NOT AND PUSH1 0x1 OR SWAP1 SSTORE PUSH32 0x62E78CEA01BEE320CD4E420270B5EA74000D11B0C9F74754EBDBFC544B05A258 PUSH2 0xA4D CALLER SWAP1 JUMP JUMPDEST PUSH2 0x5F5 PUSH2 0xDB7 JUMP JUMPDEST PUSH1 0x5 SLOAD PUSH1 0xFF AND PUSH2 0x440 JUMPI PUSH1 0x40 MLOAD PUSH3 0x461BCD PUSH1 0xE5 SHL DUP2 MSTORE PUSH1 0x20 PUSH1 0x4 DUP3 ADD MSTORE PUSH1 0x14 PUSH1 0x24 DUP3 ADD MSTORE PUSH32 0x5061757361626C653A206E6F7420706175736564000000000000000000000000 PUSH1 0x44 DUP3 ADD MSTORE PUSH1 0x64 ADD PUSH2 0x544 JUMP JUMPDEST PUSH1 0x5 SLOAD PUSH1 0xFF AND ISZERO PUSH2 0x440 JUMPI PUSH1 0x40 MLOAD PUSH3 0x461BCD PUSH1 0xE5 SHL DUP2 MSTORE PUSH1 0x20 PUSH1 0x4 DUP3 ADD MSTORE PUSH1 0x10 PUSH1 0x24 DUP3 ADD MSTORE PUSH32 0x5061757361626C653A2070617573656400000000000000000000000000000000 PUSH1 0x44 DUP3 ADD MSTORE PUSH1 0x64 ADD PUSH2 0x544 JUMP JUMPDEST PUSH1 0x0 PUSH1 0x20 DUP1 DUP4 MSTORE DUP4 MLOAD DUP1 DUP3 DUP6 ADD MSTORE PUSH1 0x0 JUMPDEST DUP2 DUP2 LT ISZERO PUSH2 0xE37 JUMPI DUP6 DUP2 ADD DUP4 ADD MLOAD DUP6 DUP3 ADD PUSH1 0x40 ADD MSTORE DUP3 ADD PUSH2 0xE1B JUMP JUMPDEST DUP2 DUP2 GT ISZERO PUSH2 0xE49 JUMPI PUSH1 0x0 PUSH1 0x40 DUP4 DUP8 ADD ADD MSTORE JUMPDEST POP PUSH1 0x1F ADD PUSH1 0x1F NOT AND SWAP3 SWAP1 SWAP3 ADD PUSH1 0x40 ADD SWAP4 SWAP3 POP POP POP JUMP JUMPDEST DUP1 CALLDATALOAD PUSH1 0x1 PUSH1 0x1 PUSH1 0xA0 SHL SUB DUP2 AND DUP2 EQ PUSH2 0xE76 JUMPI PUSH1 0x0 DUP1 REVERT JUMPDEST SWAP2 SWAP1 POP JUMP JUMPDEST PUSH1 0x0 DUP1 PUSH1 0x40 DUP4 DUP6 SUB SLT ISZERO PUSH2 0xE8E JUMPI PUSH1 0x0 DUP1 REVERT JUMPDEST PUSH2 0xE97 DUP4 PUSH2 0xE5F JUMP JUMPDEST SWAP5 PUSH1 0x20 SWAP4 SWAP1 SWAP4 ADD CALLDATALOAD SWAP4 POP POP POP JUMP JUMPDEST PUSH1 0x0 DUP1 PUSH1 0x0 PUSH1 0x60 DUP5 DUP7 SUB SLT ISZERO PUSH2 0xEBA JUMPI PUSH1 0x0 DUP1 REVERT JUMPDEST PUSH2 0xEC3 DUP5 PUSH2 0xE5F JUMP JUMPDEST SWAP3 POP PUSH2 0xED1 PUSH1 0x20 DUP6 ADD PUSH2 0xE5F JUMP JUMPDEST SWAP2 POP PUSH1 0x40 DUP5 ADD CALLDATALOAD SWAP1 POP SWAP3 POP SWAP3 POP SWAP3 JUMP JUMPDEST PUSH1 0x0 PUSH1 0x20 DUP3 DUP5 SUB SLT ISZERO PUSH2 0xEF3 JUMPI PUSH1 0x0 DUP1 REVERT JUMPDEST POP CALLDATALOAD SWAP2 SWAP1 POP JUMP JUMPDEST PUSH1 0x0 PUSH1 0x20 DUP3 DUP5 SUB SLT ISZERO PUSH2 0xF0C JUMPI PUSH1 0x0 DUP1 REVERT JUMPDEST PUSH2 0xF15 DUP3 PUSH2 0xE5F JUMP JUMPDEST SWAP4 SWAP3 POP POP POP JUMP JUMPDEST PUSH1 0x0 DUP1 PUSH1 0x40 DUP4 DUP6 SUB SLT ISZERO PUSH2 0xF2F JUMPI PUSH1 0x0 DUP1 REVERT JUMPDEST PUSH2 0xF38 DUP4 PUSH2 0xE5F JUMP JUMPDEST SWAP2 POP PUSH2 0xF46 PUSH1 0x20 DUP5 ADD PUSH2 0xE5F JUMP JUMPDEST SWAP1 POP SWAP3 POP SWAP3 SWAP1 POP JUMP JUMPDEST PUSH1 0x1 DUP2 DUP2 SHR SWAP1 DUP3 AND DUP1 PUSH2 0xF63 JUMPI PUSH1 0x7F DUP3 AND SWAP2 POP JUMPDEST PUSH1 0x20 DUP3 LT DUP2 SUB PUSH2 0xF83 JUMPI PUSH4 0x4E487B71 PUSH1 0xE0 SHL PUSH1 0x0 MSTORE PUSH1 0x22 PUSH1 0x4 MSTORE PUSH1 0x24 PUSH1 0x0 REVERT JUMPDEST POP SWAP2 SWAP1 POP JUMP JUMPDEST PUSH4 0x4E487B71 PUSH1 0xE0 SHL PUSH1 0x0 MSTORE PUSH1 0x11 PUSH1 0x4 MSTORE PUSH1 0x24 PUSH1 0x0 REVERT JUMPDEST PUSH1 0x0 DUP3 NOT DUP3 GT ISZERO PUSH2 0xFB2 JUMPI PUSH2 0xFB2 PUSH2 0xF89 JUMP JUMPDEST POP ADD SWAP1 JUMP JUMPDEST PUSH1 0x0 DUP3 DUP3 LT ISZERO PUSH2 0xFC9 JUMPI PUSH2 0xFC9 PUSH2 0xF89 JUMP JUMPDEST POP SUB SWAP1 JUMP INVALID LOG2 PUSH5 0x6970667358 0x22 SLT KECCAK256 REVERT 0xD0 SWAP4 0x22 MSTORE8 PUSH19 0xCB51BC00018C8A26A3A9D0DD81E7E10EA724DB MULMOD 0x2A 0xCC CALL BALANCE 0x5D 0x4D PUSH5 0x736F6C6343 STOP ADDMOD 0xD STOP CALLER "
    },
    "gasEstimates": {
      "creation": {
        "codeDepositCost": "820000",
        "executionCost": "infinite",
        "totalCost": "infinite"
      },
      "external": {
        "allowance(address,address)": "infinite",
        "approve(address,uint256)": "24670",
        "balanceOf(address)": "2586",
        "burn(uint256)": "53105",
        "burnFrom(address,uint256)": "79746",
        "decimals()": "267",
        "decreaseAllowance(address,uint256)": "26967",
        "increaseAllowance(address,uint256)": "26991",
        "mint(address,uint256)": "infinite",
        "name()": "infinite",
        "owner()": "2419",
        "pause()": "infinite",
        "paused()": "2393",
        "renounceOwnership()": "infinite",
        "symbol()": "infinite",
        "totalSupply()": "2327",
        "transfer(address,uint256)": "53415",
        "transferFrom(address,address,uint256)": "infinite",
        "transferOwnership(address)": "28442",
        "unpause()": "infinite"
      },
      "internal": {
        "_beforeTokenTransfer(address,address,uint256)": "infinite"
      }
    },
    "methodIdentifiers": {
      "allowance(address,address)": "dd62ed3e",
      "approve(address,uint256)": "095ea7b3",
      "balanceOf(address)": "70a08231",
      "burn(uint256)": "42966c68",
      "burnFrom(address,uint256)": "79cc6790",
      "decimals()": "313ce567",
      "decreaseAllowance(address,uint256)": "a457c2d7",
      "increaseAllowance(address,uint256)": "39509351",
      "mint(address,uint256)": "40c10f19",
      "name()": "06fdde03",
      "owner()": "8da5cb5b",
      "pause()": "8456cb59",
      "paused()": "5c975abb",
      "renounceOwnership()": "715018a6",
      "symbol()": "95d89b41",
      "totalSupply()": "18160ddd",
      "transfer(address,uint256)": "a9059cbb",
      "transferFrom(address,address,uint256)": "23b872dd",
      "transferOwnership(address)": "f2fde38b",
      "unpause()": "3f4ba83a"
    }
  },
  "storageLayout": {
    "storage": [
      {
        "astId": 824,
        "contract": "AWEtoken.sol:AWEtoken",
        "label": "_balances",
        "offset": 0,
        "slot": "0",
        "type": "t_mapping(t_address,t_uint256)"
      },
      {
        "astId": 830,
        "contract": "AWEtoken.sol:AWEtoken",
        "label": "_allowances",
        "offset": 0,
        "slot": "1",
        "type": "t_mapping(t_address,t_mapping(t_address,t_uint256))"
      },
      {
        "astId": 832,
        "contract": "AWEtoken.sol:AWEtoken",
        "label": "_totalSupply",
        "offset": 0,
        "slot": "2",
        "type": "t_uint256"
      },
      {
        "astId": 834,
        "contract": "AWEtoken.sol:AWEtoken",
        "label": "_name",
        "offset": 0,
        "slot": "3",
        "type": "t_string_storage"
      },
      {
        "astId": 836,
        "contract": "AWEtoken.sol:AWEtoken",
        "label": "_symbol",
        "offset": 0,
        "slot": "4",
        "type": "t_string_storage"
      },
      {
        "astId": 718,
        "contract": "AWEtoken.sol:AWEtoken",
        "label": "_paused",
        "offset": 0,
        "slot": "5",
        "type": "t_bool"
      },
      {
        "astId": 595,
        "contract": "AWEtoken.sol:AWEtoken",
        "label": "_owner",
        "offset": 1,
        "slot": "5",
        "type": "t_address"
      }
    ],
    "types": {
      "t_address": {
        "encoding": "inplace",
        "label": "address",
        "numberOfBytes": "20"
      },
      "t_bool": {
        "encoding": "inplace",
        "label": "bool",
        "numberOfBytes": "1"
      },
      "t_mapping(t_address,t_mapping(t_address,t_uint256))": {
        "encoding": "mapping",
        "key": "t_address",
        "label": "mapping(address => mapping(address => uint256))",
        "numberOfBytes": "32",
        "value": "t_mapping(t_address,t_uint256)"
      },
      "t_mapping(t_address,t_uint256)": {
        "encoding": "mapping",
        "key": "t_address",
        "label": "mapping(address => uint256)",
        "numberOfBytes": "32",
        "value": "t_uint256"
      },
      "t_string_storage": {
        "encoding": "bytes",
        "label": "string",
        "numberOfBytes": "32"
      },
      "t_uint256": {
        "encoding": "inplace",
        "label": "uint256",
        "numberOfBytes": "32"
      }
    }
  },
  "userdoc": {
    "kind": "user",
    "methods": {},
    "version": 1
  }
}